{
  "abi": [
    {
      "inputs": [
        {
          "internalType": "contract IERC721",
          "name": "_therotybroiCollection",
          "type": "address"
        },
        {
          "internalType": "contract IERC20",
          "name": "_oioiToken",
          "type": "address"
        }
      ],
      "stateMutability": "nonpayable",
      "type": "constructor"
    },
    {
      "inputs": [
        {
          "internalType": "address",
          "name": "_staker",
          "type": "address"
        }
      ],
      "name": "availableRewards",
      "outputs": [
        {
          "internalType": "uint256",
          "name": "",
          "type": "uint256"
        }
      ],
      "stateMutability": "view",
      "type": "function"
    },
    {
      "inputs": [],
      "name": "claimRewards",
      "outputs": [],
      "stateMutability": "nonpayable",
      "type": "function"
    },
    {
      "inputs": [
        {
          "internalType": "address",
          "name": "_user",
          "type": "address"
        }
      ],
      "name": "getStakedRotyBrois",
      "outputs": [
        {
          "components": [
            {
              "internalType": "address",
              "name": "staker",
              "type": "address"
            },
            {
              "internalType": "uint256",
              "name": "rotybroiId",
              "type": "uint256"
            }
          ],
          "internalType": "struct RotyBroiStaking.StakedRotyBroi[]",
          "name": "",
          "type": "tuple[]"
        }
      ],
      "stateMutability": "view",
      "type": "function"
    },
    {
      "inputs": [],
      "name": "oioiToken",
      "outputs": [
        {
          "internalType": "contract IERC20",
          "name": "",
          "type": "address"
        }
      ],
      "stateMutability": "view",
      "type": "function"
    },
    {
      "inputs": [
        {
          "internalType": "uint256",
          "name": "_rotybroiId",
          "type": "uint256"
        }
      ],
      "name": "stake",
      "outputs": [],
      "stateMutability": "nonpayable",
      "type": "function"
    },
    {
      "inputs": [
        {
          "internalType": "uint256",
          "name": "",
          "type": "uint256"
        }
      ],
      "name": "stakerAddress",
      "outputs": [
        {
          "internalType": "address",
          "name": "",
          "type": "address"
        }
      ],
      "stateMutability": "view",
      "type": "function"
    },
    {
      "inputs": [
        {
          "internalType": "address",
          "name": "",
          "type": "address"
        }
      ],
      "name": "stakers",
      "outputs": [
        {
          "internalType": "uint256",
          "name": "amountStaked",
          "type": "uint256"
        },
        {
          "internalType": "uint256",
          "name": "timeOfLastUpdate",
          "type": "uint256"
        },
        {
          "internalType": "uint256",
          "name": "unclaimedRewards",
          "type": "uint256"
        }
      ],
      "stateMutability": "view",
      "type": "function"
    },
    {
      "inputs": [],
      "name": "therotybroiCollection",
      "outputs": [
        {
          "internalType": "contract IERC721",
          "name": "",
          "type": "address"
        }
      ],
      "stateMutability": "view",
      "type": "function"
    },
    {
      "inputs": [
        {
          "internalType": "uint256",
          "name": "_rotybroiId",
          "type": "uint256"
        }
      ],
      "name": "withdraw",
      "outputs": [],
      "stateMutability": "nonpayable",
      "type": "function"
    }
  ],
  "devdoc": {
    "kind": "dev",
    "methods": {},
    "version": 1
  },
  "evm": {
    "assembly": "    /* \"RotyBroiStaking.sol\":303:7635  contract RotyBroiStaking is ReentrancyGuard {... */\n  mstore(0x40, 0xc0)\n    /* \"RotyBroiStaking.sol\":1465:1473  47474747 */\n  0x02d4683b\n    /* \"RotyBroiStaking.sol\":1432:1473  uint256 private rewardsPerHour = 47474747 */\n  0x01\n  sstore\n    /* \"RotyBroiStaking.sol\":605:763  constructor(IERC721 _therotybroiCollection, IERC20 _oioiToken) {... */\n  callvalue\n  dup1\n  iszero\n  tag_1\n  jumpi\n  0x00\n  dup1\n  revert\ntag_1:\n  pop\n  mload(0x40)\n  sub(codesize, bytecodeSize)\n  dup1\n  bytecodeSize\n  dup4\n  codecopy\n  dup2\n  add\n  0x40\n  dup2\n  swap1\n  mstore\n  tag_2\n  swap2\n  tag_3\n  jump\t// in\ntag_2:\n    /* \"@openzeppelin/contracts/security/ReentrancyGuard.sol\":1701:1702   */\n  0x01\n    /* \"@openzeppelin/contracts/security/ReentrancyGuard.sol\":1806:1813   */\n  0x00\n    /* \"@openzeppelin/contracts/security/ReentrancyGuard.sol\":1806:1828   */\n  sstore\n  sub(shl(0xa0, 0x01), 0x01)\n    /* \"RotyBroiStaking.sol\":678:724  therotybroiCollection = _therotybroiCollection */\n  swap2\n  dup3\n  and\n  0xa0\n  mstore\n    /* \"RotyBroiStaking.sol\":734:756  oioiToken = _oioiToken */\n  and\n  0x80\n  mstore\n    /* \"RotyBroiStaking.sol\":303:7635  contract RotyBroiStaking is ReentrancyGuard {... */\n  jump(tag_10)\n    /* \"#utility.yul\":14:154   */\ntag_9:\n  sub(shl(0xa0, 0x01), 0x01)\n    /* \"#utility.yul\":98:129   */\n  dup2\n  and\n    /* \"#utility.yul\":88:130   */\n  dup2\n  eq\n    /* \"#utility.yul\":78:148   */\n  tag_12\n  jumpi\n    /* \"#utility.yul\":144:145   */\n  0x00\n    /* \"#utility.yul\":141:142   */\n  dup1\n    /* \"#utility.yul\":134:146   */\n  revert\n    /* \"#utility.yul\":78:148   */\ntag_12:\n    /* \"#utility.yul\":14:154   */\n  pop\n  jump\t// out\n    /* \"#utility.yul\":159:592   */\ntag_3:\n    /* \"#utility.yul\":268:274   */\n  0x00\n    /* \"#utility.yul\":276:282   */\n  dup1\n    /* \"#utility.yul\":329:331   */\n  0x40\n    /* \"#utility.yul\":317:326   */\n  dup4\n    /* \"#utility.yul\":308:315   */\n  dup6\n    /* \"#utility.yul\":304:327   */\n  sub\n    /* \"#utility.yul\":300:332   */\n  slt\n    /* \"#utility.yul\":297:349   */\n  iszero\n  tag_14\n  jumpi\n    /* \"#utility.yul\":345:346   */\n  0x00\n    /* \"#utility.yul\":342:343   */\n  dup1\n    /* \"#utility.yul\":335:347   */\n  revert\n    /* \"#utility.yul\":297:349   */\ntag_14:\n    /* \"#utility.yul\":377:386   */\n  dup3\n    /* \"#utility.yul\":371:387   */\n  mload\n    /* \"#utility.yul\":396:436   */\n  tag_15\n    /* \"#utility.yul\":430:435   */\n  dup2\n    /* \"#utility.yul\":396:436   */\n  tag_9\n  jump\t// in\ntag_15:\n    /* \"#utility.yul\":505:507   */\n  0x20\n    /* \"#utility.yul\":490:508   */\n  dup5\n  add\n    /* \"#utility.yul\":484:509   */\n  mload\n    /* \"#utility.yul\":455:460   */\n  swap1\n  swap3\n  pop\n    /* \"#utility.yul\":518:560   */\n  tag_16\n    /* \"#utility.yul\":484:509   */\n  dup2\n    /* \"#utility.yul\":518:560   */\n  tag_9\n  jump\t// in\ntag_16:\n    /* \"#utility.yul\":579:586   */\n  dup1\n    /* \"#utility.yul\":569:586   */\n  swap2\n  pop\n  pop\n    /* \"#utility.yul\":159:592   */\n  swap3\n  pop\n  swap3\n  swap1\n  pop\n  jump\t// out\ntag_10:\n    /* \"RotyBroiStaking.sol\":303:7635  contract RotyBroiStaking is ReentrancyGuard {... */\n  mload(0x80)\n  mload(0xa0)\n  codecopy(0x00, dataOffset(sub_0), dataSize(sub_0))\n  0x00\n  assignImmutable(\"0x8e8fab5f003314da8d1873ea7720e8d9f47650136d916064d1edb8a11d682624\")\n  0x00\n  assignImmutable(\"0x5c4c6aa067b6f8e6cb38e6ab843832a94d1712d661a04d73c517d6a1931a9e5d\")\n  return(0x00, dataSize(sub_0))\nstop\n\nsub_0: assembly {\n        /* \"RotyBroiStaking.sol\":303:7635  contract RotyBroiStaking is ReentrancyGuard {... */\n      mstore(0x40, 0x80)\n      callvalue\n      dup1\n      iszero\n      tag_1\n      jumpi\n      0x00\n      dup1\n      revert\n    tag_1:\n      pop\n      jumpi(tag_2, lt(calldatasize, 0x04))\n      shr(0xe0, calldataload(0x00))\n      dup1\n      0xa22be795\n      gt\n      tag_12\n      jumpi\n      dup1\n      0xb08c1977\n      gt\n      tag_13\n      jumpi\n      dup1\n      0xb08c1977\n      eq\n      tag_9\n      jumpi\n      dup1\n      0xec483e6e\n      eq\n      tag_10\n      jumpi\n      dup1\n      0xf854a27f\n      eq\n      tag_11\n      jumpi\n      0x00\n      dup1\n      revert\n    tag_13:\n      dup1\n      0xa22be795\n      eq\n      tag_7\n      jumpi\n      dup1\n      0xa694fc3a\n      eq\n      tag_8\n      jumpi\n      0x00\n      dup1\n      revert\n    tag_12:\n      dup1\n      0x2e1a7d4d\n      eq\n      tag_3\n      jumpi\n      dup1\n      0x372500ab\n      eq\n      tag_4\n      jumpi\n      dup1\n      0x9168ae72\n      eq\n      tag_5\n      jumpi\n      dup1\n      0x94067045\n      eq\n      tag_6\n      jumpi\n    tag_2:\n      0x00\n      dup1\n      revert\n        /* \"RotyBroiStaking.sol\":3554:5411  function withdraw(uint256 _rotybroiId) external nonReentrant {... */\n    tag_3:\n      tag_14\n      tag_15\n      calldatasize\n      0x04\n      tag_16\n      jump\t// in\n    tag_15:\n      tag_17\n      jump\t// in\n    tag_14:\n      stop\n        /* \"RotyBroiStaking.sol\":5574:5954  function claimRewards() external {... */\n    tag_4:\n      tag_14\n      tag_19\n      jump\t// in\n        /* \"RotyBroiStaking.sol\":1529:1570  mapping(address => Staker) public stakers */\n    tag_5:\n      tag_20\n      tag_21\n      calldatasize\n      0x04\n      tag_22\n      jump\t// in\n    tag_21:\n      0x02\n      0x20\n      dup2\n      swap1\n      mstore\n      0x00\n      swap2\n      dup3\n      mstore\n      0x40\n      swap1\n      swap2\n      keccak256\n      dup1\n      sload\n      swap2\n      dup2\n      add\n      sload\n      0x03\n      swap1\n      swap2\n      add\n      sload\n      dup4\n      jump\n    tag_20:\n      0x40\n      dup1\n      mload\n        /* \"#utility.yul\":812:837   */\n      swap4\n      dup5\n      mstore\n        /* \"#utility.yul\":868:870   */\n      0x20\n        /* \"#utility.yul\":853:871   */\n      dup5\n      add\n        /* \"#utility.yul\":846:880   */\n      swap3\n      swap1\n      swap3\n      mstore\n        /* \"#utility.yul\":896:914   */\n      swap1\n      dup3\n      add\n        /* \"#utility.yul\":889:923   */\n      mstore\n        /* \"#utility.yul\":800:802   */\n      0x60\n        /* \"#utility.yul\":785:803   */\n      add\n        /* \"RotyBroiStaking.sol\":1529:1570  mapping(address => Staker) public stakers */\n    tag_24:\n      mload(0x40)\n      dup1\n      swap2\n      sub\n      swap1\n      return\n        /* \"RotyBroiStaking.sol\":1700:1748  mapping(uint256 => address) public stakerAddress */\n    tag_6:\n      tag_26\n      tag_27\n      calldatasize\n      0x04\n      tag_16\n      jump\t// in\n    tag_27:\n      mstore(0x20, 0x03)\n      0x00\n      swap1\n      dup2\n      mstore\n      0x40\n      swap1\n      keccak256\n      sload\n      sub(shl(0xa0, 0x01), 0x01)\n      and\n      dup2\n      jump\n    tag_26:\n      mload(0x40)\n      sub(shl(0xa0, 0x01), 0x01)\n        /* \"#utility.yul\":1098:1153   */\n      swap1\n      swap2\n      and\n        /* \"#utility.yul\":1080:1154   */\n      dup2\n      mstore\n        /* \"#utility.yul\":1068:1070   */\n      0x20\n        /* \"#utility.yul\":1053:1071   */\n      add\n        /* \"RotyBroiStaking.sol\":1700:1748  mapping(uint256 => address) public stakerAddress */\n      tag_24\n        /* \"#utility.yul\":934:1160   */\n      jump\n        /* \"RotyBroiStaking.sol\":6218:7113  function getStakedRotyBrois(address _user) public view returns (StakedRotyBroi[] memory) {... */\n    tag_7:\n      tag_31\n      tag_32\n      calldatasize\n      0x04\n      tag_22\n      jump\t// in\n    tag_32:\n      tag_33\n      jump\t// in\n    tag_31:\n      mload(0x40)\n      tag_24\n      swap2\n      swap1\n      tag_35\n      jump\t// in\n        /* \"RotyBroiStaking.sol\":2011:3334  function stake(uint256 _rotybroiId) external nonReentrant {... */\n    tag_8:\n      tag_14\n      tag_37\n      calldatasize\n      0x04\n      tag_16\n      jump\t// in\n    tag_37:\n      tag_38\n      jump\t// in\n        /* \"RotyBroiStaking.sol\":465:511  IERC721 public immutable therotybroiCollection */\n    tag_9:\n      tag_26\n      immutable(\"0x8e8fab5f003314da8d1873ea7720e8d9f47650136d916064d1edb8a11d682624\")\n      dup2\n      jump\n        /* \"RotyBroiStaking.sol\":426:459  IERC20 public immutable oioiToken */\n    tag_10:\n      tag_26\n      immutable(\"0x5c4c6aa067b6f8e6cb38e6ab843832a94d1712d661a04d73c517d6a1931a9e5d\")\n      dup2\n      jump\n        /* \"RotyBroiStaking.sol\":6007:6212  function availableRewards(address _staker) public view returns (uint256) {... */\n    tag_11:\n      tag_47\n      tag_48\n      calldatasize\n      0x04\n      tag_22\n      jump\t// in\n    tag_48:\n      tag_49\n      jump\t// in\n    tag_47:\n      mload(0x40)\n        /* \"#utility.yul\":2655:2680   */\n      swap1\n      dup2\n      mstore\n        /* \"#utility.yul\":2643:2645   */\n      0x20\n        /* \"#utility.yul\":2628:2646   */\n      add\n        /* \"RotyBroiStaking.sol\":6007:6212  function availableRewards(address _staker) public view returns (uint256) {... */\n      tag_24\n        /* \"#utility.yul\":2509:2686   */\n      jump\n        /* \"RotyBroiStaking.sol\":3554:5411  function withdraw(uint256 _rotybroiId) external nonReentrant {... */\n    tag_17:\n        /* \"@openzeppelin/contracts/security/ReentrancyGuard.sol\":1744:1745   */\n      0x02\n        /* \"@openzeppelin/contracts/security/ReentrancyGuard.sol\":2325:2332   */\n      sload(0x00)\n        /* \"@openzeppelin/contracts/security/ReentrancyGuard.sol\":2325:2344   */\n      sub\n        /* \"@openzeppelin/contracts/security/ReentrancyGuard.sol\":2317:2380   */\n      tag_53\n      jumpi\n      mload(0x40)\n      shl(0xe5, 0x461bcd)\n      dup2\n      mstore\n        /* \"#utility.yul\":2893:2895   */\n      0x20\n        /* \"@openzeppelin/contracts/security/ReentrancyGuard.sol\":2317:2380   */\n      0x04\n      dup3\n      add\n        /* \"#utility.yul\":2875:2896   */\n      mstore\n        /* \"#utility.yul\":2932:2934   */\n      0x1f\n        /* \"#utility.yul\":2912:2930   */\n      0x24\n      dup3\n      add\n        /* \"#utility.yul\":2905:2935   */\n      mstore\n        /* \"#utility.yul\":2971:3004   */\n      0x5265656e7472616e637947756172643a207265656e7472616e742063616c6c00\n        /* \"#utility.yul\":2951:2969   */\n      0x44\n      dup3\n      add\n        /* \"#utility.yul\":2944:3005   */\n      mstore\n        /* \"#utility.yul\":3022:3040   */\n      0x64\n      add\n        /* \"@openzeppelin/contracts/security/ReentrancyGuard.sol\":2317:2380   */\n    tag_54:\n      mload(0x40)\n      dup1\n      swap2\n      sub\n      swap1\n      revert\n    tag_53:\n        /* \"@openzeppelin/contracts/security/ReentrancyGuard.sol\":1744:1745   */\n      0x02\n        /* \"@openzeppelin/contracts/security/ReentrancyGuard.sol\":2455:2462   */\n      0x00\n        /* \"@openzeppelin/contracts/security/ReentrancyGuard.sol\":2455:2473   */\n      dup2\n      dup2\n      sstore\n        /* \"RotyBroiStaking.sol\":3734:3744  msg.sender */\n      caller\n        /* \"RotyBroiStaking.sol\":3726:3745  stakers[msg.sender] */\n      dup2\n      mstore\n      0x20\n      swap2\n      swap1\n      swap2\n      mstore\n      0x40\n      swap1\n      keccak256\n        /* \"RotyBroiStaking.sol\":3726:3758  stakers[msg.sender].amountStaked */\n      sload\n        /* \"RotyBroiStaking.sol\":3705:3851  require(... */\n      tag_57\n      jumpi\n      mload(0x40)\n      shl(0xe5, 0x461bcd)\n      dup2\n      mstore\n        /* \"#utility.yul\":3253:3255   */\n      0x20\n        /* \"RotyBroiStaking.sol\":3705:3851  require(... */\n      0x04\n      dup3\n      add\n        /* \"#utility.yul\":3235:3256   */\n      mstore\n        /* \"#utility.yul\":3292:3294   */\n      0x3f\n        /* \"#utility.yul\":3272:3290   */\n      0x24\n      dup3\n      add\n        /* \"#utility.yul\":3265:3295   */\n      mstore\n        /* \"#utility.yul\":3331:3365   */\n      0x596f752068617665206e6f20524f54592042524f49207374616b656421212121\n        /* \"#utility.yul\":3311:3329   */\n      0x44\n      dup3\n      add\n        /* \"#utility.yul\":3304:3366   */\n      mstore\n        /* \"#utility.yul\":3402:3435   */\n      0x205374616b652054686520524f54592042524f49206e6f772121212121212100\n        /* \"#utility.yul\":3382:3400   */\n      0x64\n      dup3\n      add\n        /* \"#utility.yul\":3375:3436   */\n      mstore\n        /* \"#utility.yul\":3453:3472   */\n      0x84\n      add\n        /* \"RotyBroiStaking.sol\":3705:3851  require(... */\n      tag_54\n        /* \"#utility.yul\":3051:3478   */\n      jump\n        /* \"RotyBroiStaking.sol\":3705:3851  require(... */\n    tag_57:\n        /* \"RotyBroiStaking.sol\":3947:3973  stakerAddress[_rotybroiId] */\n      0x00\n      dup2\n      dup2\n      mstore\n        /* \"RotyBroiStaking.sol\":3947:3960  stakerAddress */\n      0x03\n        /* \"RotyBroiStaking.sol\":3947:3973  stakerAddress[_rotybroiId] */\n      0x20\n      mstore\n      0x40\n      swap1\n      keccak256\n      sload\n      sub(shl(0xa0, 0x01), 0x01)\n      and\n        /* \"RotyBroiStaking.sol\":3977:3987  msg.sender */\n      caller\n        /* \"RotyBroiStaking.sol\":3947:3987  stakerAddress[_rotybroiId] == msg.sender */\n      eq\n        /* \"RotyBroiStaking.sol\":3926:4048  require(... */\n      tag_60\n      jumpi\n      mload(0x40)\n      shl(0xe5, 0x461bcd)\n      dup2\n      mstore\n        /* \"#utility.yul\":3685:3687   */\n      0x20\n        /* \"RotyBroiStaking.sol\":3926:4048  require(... */\n      0x04\n      dup3\n      add\n        /* \"#utility.yul\":3667:3688   */\n      mstore\n        /* \"#utility.yul\":3724:3726   */\n      0x23\n        /* \"#utility.yul\":3704:3722   */\n      0x24\n      dup3\n      add\n        /* \"#utility.yul\":3697:3727   */\n      mstore\n        /* \"#utility.yul\":3763:3797   */\n      0x596f7520646f6e2774206f776e207468697320524f54592042524f4921212121\n        /* \"#utility.yul\":3743:3761   */\n      0x44\n      dup3\n      add\n        /* \"#utility.yul\":3736:3798   */\n      mstore\n      shl(0xe8, 0x212121)\n        /* \"#utility.yul\":3814:3832   */\n      0x64\n      dup3\n      add\n        /* \"#utility.yul\":3807:3840   */\n      mstore\n        /* \"#utility.yul\":3857:3876   */\n      0x84\n      add\n        /* \"RotyBroiStaking.sol\":3926:4048  require(... */\n      tag_54\n        /* \"#utility.yul\":3483:3882   */\n      jump\n        /* \"RotyBroiStaking.sol\":3926:4048  require(... */\n    tag_60:\n        /* \"RotyBroiStaking.sol\":4157:4172  uint256 rewards */\n      0x00\n        /* \"RotyBroiStaking.sol\":4175:4203  calculateRewards(msg.sender) */\n      tag_63\n        /* \"RotyBroiStaking.sol\":4192:4202  msg.sender */\n      caller\n        /* \"RotyBroiStaking.sol\":4175:4191  calculateRewards */\n      tag_64\n        /* \"RotyBroiStaking.sol\":4175:4203  calculateRewards(msg.sender) */\n      jump\t// in\n    tag_63:\n        /* \"RotyBroiStaking.sol\":4221:4231  msg.sender */\n      caller\n        /* \"RotyBroiStaking.sol\":4213:4232  stakers[msg.sender] */\n      0x00\n      swap1\n      dup2\n      mstore\n        /* \"RotyBroiStaking.sol\":4213:4220  stakers */\n      0x02\n        /* \"RotyBroiStaking.sol\":4213:4232  stakers[msg.sender] */\n      0x20\n      mstore\n      0x40\n      dup2\n      keccak256\n        /* \"RotyBroiStaking.sol\":4213:4249  stakers[msg.sender].unclaimedRewards */\n      0x03\n      add\n        /* \"RotyBroiStaking.sol\":4213:4260  stakers[msg.sender].unclaimedRewards += rewards */\n      dup1\n      sload\n        /* \"RotyBroiStaking.sol\":4157:4203  uint256 rewards = calculateRewards(msg.sender) */\n      swap3\n      swap4\n      pop\n      dup4\n      swap3\n        /* \"RotyBroiStaking.sol\":4213:4249  stakers[msg.sender].unclaimedRewards */\n      swap1\n      swap2\n        /* \"RotyBroiStaking.sol\":4213:4232  stakers[msg.sender] */\n      swap1\n        /* \"RotyBroiStaking.sol\":4213:4260  stakers[msg.sender].unclaimedRewards += rewards */\n      tag_65\n      swap1\n        /* \"RotyBroiStaking.sol\":4157:4203  uint256 rewards = calculateRewards(msg.sender) */\n      dup5\n      swap1\n        /* \"RotyBroiStaking.sol\":4213:4260  stakers[msg.sender].unclaimedRewards += rewards */\n      tag_66\n      jump\t// in\n    tag_65:\n      swap1\n      swap2\n      sstore\n      pop\n        /* \"RotyBroiStaking.sol\":4343:4356  uint256 index */\n      0x00\n      swap1\n      pop\n      dup1\n        /* \"RotyBroiStaking.sol\":4370:4711  for (uint256 i = 0; i < stakers[msg.sender].stakedRotyBrois.length; i++) {... */\n    tag_67:\n        /* \"RotyBroiStaking.sol\":4402:4412  msg.sender */\n      caller\n        /* \"RotyBroiStaking.sol\":4394:4413  stakers[msg.sender] */\n      0x00\n      swap1\n      dup2\n      mstore\n        /* \"RotyBroiStaking.sol\":4394:4401  stakers */\n      0x02\n        /* \"RotyBroiStaking.sol\":4394:4413  stakers[msg.sender] */\n      0x20\n      mstore\n      0x40\n      swap1\n      keccak256\n        /* \"RotyBroiStaking.sol\":4394:4429  stakers[msg.sender].stakedRotyBrois */\n      0x01\n      add\n        /* \"RotyBroiStaking.sol\":4394:4436  stakers[msg.sender].stakedRotyBrois.length */\n      sload\n        /* \"RotyBroiStaking.sol\":4390:4436  i < stakers[msg.sender].stakedRotyBrois.length */\n      dup2\n      lt\n        /* \"RotyBroiStaking.sol\":4370:4711  for (uint256 i = 0; i < stakers[msg.sender].stakedRotyBrois.length; i++) {... */\n      iszero\n      tag_68\n      jumpi\n        /* \"RotyBroiStaking.sol\":4486:4496  msg.sender */\n      caller\n        /* \"RotyBroiStaking.sol\":4478:4497  stakers[msg.sender] */\n      0x00\n      swap1\n      dup2\n      mstore\n        /* \"RotyBroiStaking.sol\":4478:4485  stakers */\n      0x02\n        /* \"RotyBroiStaking.sol\":4478:4497  stakers[msg.sender] */\n      0x20\n      mstore\n      0x40\n      swap1\n      keccak256\n        /* \"RotyBroiStaking.sol\":4478:4513  stakers[msg.sender].stakedRotyBrois */\n      0x01\n      add\n        /* \"RotyBroiStaking.sol\":4478:4516  stakers[msg.sender].stakedRotyBrois[i] */\n      dup1\n      sload\n        /* \"RotyBroiStaking.sol\":4531:4542  _rotybroiId */\n      dup6\n      swap2\n        /* \"RotyBroiStaking.sol\":4478:4513  stakers[msg.sender].stakedRotyBrois */\n      swap1\n        /* \"RotyBroiStaking.sol\":4514:4515  i */\n      dup4\n      swap1\n        /* \"RotyBroiStaking.sol\":4478:4516  stakers[msg.sender].stakedRotyBrois[i] */\n      dup2\n      lt\n      tag_71\n      jumpi\n      tag_71\n      tag_72\n      jump\t// in\n    tag_71:\n      swap1\n      0x00\n      mstore\n      keccak256(0x00, 0x20)\n      swap1\n      0x02\n      mul\n      add\n        /* \"RotyBroiStaking.sol\":4478:4527  stakers[msg.sender].stakedRotyBrois[i].rotybroiId */\n      0x01\n      add\n      sload\n        /* \"RotyBroiStaking.sol\":4478:4542  stakers[msg.sender].stakedRotyBrois[i].rotybroiId == _rotybroiId */\n      eq\n        /* \"RotyBroiStaking.sol\":4478:4621  stakers[msg.sender].stakedRotyBrois[i].rotybroiId == _rotybroiId &&... */\n      dup1\n      iszero\n      tag_74\n      jumpi\n      pop\n        /* \"RotyBroiStaking.sol\":4570:4580  msg.sender */\n      caller\n        /* \"RotyBroiStaking.sol\":4619:4620  0 */\n      0x00\n        /* \"RotyBroiStaking.sol\":4562:4581  stakers[msg.sender] */\n      swap1\n      dup2\n      mstore\n        /* \"RotyBroiStaking.sol\":4562:4569  stakers */\n      0x02\n        /* \"RotyBroiStaking.sol\":4562:4581  stakers[msg.sender] */\n      0x20\n      mstore\n      0x40\n      dup2\n      keccak256\n        /* \"RotyBroiStaking.sol\":4562:4597  stakers[msg.sender].stakedRotyBrois */\n      0x01\n      add\n        /* \"RotyBroiStaking.sol\":4562:4600  stakers[msg.sender].stakedRotyBrois[i] */\n      dup1\n      sload\n        /* \"RotyBroiStaking.sol\":4598:4599  i */\n      dup4\n      swap1\n        /* \"RotyBroiStaking.sol\":4562:4600  stakers[msg.sender].stakedRotyBrois[i] */\n      dup2\n      lt\n      tag_76\n      jumpi\n      tag_76\n      tag_72\n      jump\t// in\n    tag_76:\n      0x00\n      swap2\n      dup3\n      mstore\n      0x20\n      swap1\n      swap2\n      keccak256\n      0x02\n      swap1\n      swap2\n      mul\n      add\n        /* \"RotyBroiStaking.sol\":4562:4607  stakers[msg.sender].stakedRotyBrois[i].staker */\n      sload\n      sub(shl(0xa0, 0x01), 0x01)\n      and\n        /* \"RotyBroiStaking.sol\":4562:4621  stakers[msg.sender].stakedRotyBrois[i].staker != address(0) */\n      eq\n      iszero\n        /* \"RotyBroiStaking.sol\":4478:4621  stakers[msg.sender].stakedRotyBrois[i].rotybroiId == _rotybroiId &&... */\n    tag_74:\n        /* \"RotyBroiStaking.sol\":4457:4701  if (... */\n      iszero\n      tag_78\n      jumpi\n        /* \"RotyBroiStaking.sol\":4662:4663  i */\n      dup1\n        /* \"RotyBroiStaking.sol\":4654:4663  index = i */\n      swap2\n      pop\n        /* \"RotyBroiStaking.sol\":4681:4686  break */\n      jump(tag_68)\n        /* \"RotyBroiStaking.sol\":4457:4701  if (... */\n    tag_78:\n        /* \"RotyBroiStaking.sol\":4438:4441  i++ */\n      dup1\n      tag_79\n      dup2\n      tag_80\n      jump\t// in\n    tag_79:\n      swap2\n      pop\n      pop\n        /* \"RotyBroiStaking.sol\":4370:4711  for (uint256 i = 0; i < stakers[msg.sender].stakedRotyBrois.length; i++) {... */\n      jump(tag_67)\n    tag_68:\n      pop\n        /* \"RotyBroiStaking.sol\":4810:4820  msg.sender */\n      caller\n        /* \"RotyBroiStaking.sol\":4862:4863  0 */\n      0x00\n        /* \"RotyBroiStaking.sol\":4802:4821  stakers[msg.sender] */\n      swap1\n      dup2\n      mstore\n        /* \"RotyBroiStaking.sol\":4802:4809  stakers */\n      0x02\n        /* \"RotyBroiStaking.sol\":4802:4821  stakers[msg.sender] */\n      0x20\n      mstore\n      0x40\n      dup2\n      keccak256\n        /* \"RotyBroiStaking.sol\":4802:4837  stakers[msg.sender].stakedRotyBrois */\n      0x01\n      add\n        /* \"RotyBroiStaking.sol\":4802:4844  stakers[msg.sender].stakedRotyBrois[index] */\n      dup1\n      sload\n        /* \"RotyBroiStaking.sol\":4838:4843  index */\n      dup4\n      swap1\n        /* \"RotyBroiStaking.sol\":4802:4844  stakers[msg.sender].stakedRotyBrois[index] */\n      dup2\n      lt\n      tag_82\n      jumpi\n      tag_82\n      tag_72\n      jump\t// in\n    tag_82:\n      0x00\n      swap2\n      dup3\n      mstore\n      0x20\n      dup1\n      dup4\n      keccak256\n      0x02\n      swap3\n      dup4\n      mul\n      add\n        /* \"RotyBroiStaking.sol\":4802:4864  stakers[msg.sender].stakedRotyBrois[index].staker = address(0) */\n      dup1\n      sload\n      not(sub(shl(0xa0, 0x01), 0x01))\n      and\n      sub(shl(0xa0, 0x01), 0x01)\n      swap6\n      swap1\n      swap6\n      and\n      swap5\n      swap1\n      swap5\n      or\n      swap1\n      swap4\n      sstore\n        /* \"RotyBroiStaking.sol\":4946:4956  msg.sender */\n      caller\n        /* \"RotyBroiStaking.sol\":4938:4957  stakers[msg.sender] */\n      dup3\n      mstore\n      swap1\n      swap2\n      mstore\n      0x40\n      dup2\n      keccak256\n        /* \"RotyBroiStaking.sol\":4938:4972  stakers[msg.sender].amountStaked-- */\n      dup1\n      sload\n      swap2\n      tag_84\n      dup4\n      tag_85\n      jump\t// in\n    tag_84:\n      swap1\n      swap2\n      sstore\n      pop\n      pop\n        /* \"RotyBroiStaking.sol\":5139:5140  0 */\n      0x00\n        /* \"RotyBroiStaking.sol\":5102:5128  stakerAddress[_rotybroiId] */\n      dup4\n      dup2\n      mstore\n        /* \"RotyBroiStaking.sol\":5102:5115  stakerAddress */\n      0x03\n        /* \"RotyBroiStaking.sol\":5102:5128  stakerAddress[_rotybroiId] */\n      0x20\n      mstore\n      0x40\n      swap1\n      dup2\n      swap1\n      keccak256\n        /* \"RotyBroiStaking.sol\":5102:5141  stakerAddress[_rotybroiId] = address(0) */\n      dup1\n      sload\n      not(sub(shl(0xa0, 0x01), 0x01))\n      and\n      swap1\n      sstore\n        /* \"RotyBroiStaking.sol\":5208:5282  therotybroiCollection.transferFrom(address(this), msg.sender, _rotybroiId) */\n      mload\n      shl(0xe0, 0x23b872dd)\n      dup2\n      mstore\n        /* \"RotyBroiStaking.sol\":5251:5255  this */\n      address\n        /* \"RotyBroiStaking.sol\":5208:5282  therotybroiCollection.transferFrom(address(this), msg.sender, _rotybroiId) */\n      0x04\n      dup3\n      add\n        /* \"#utility.yul\":4828:4862   */\n      mstore\n        /* \"RotyBroiStaking.sol\":5258:5268  msg.sender */\n      caller\n        /* \"#utility.yul\":4878:4896   */\n      0x24\n      dup3\n      add\n        /* \"#utility.yul\":4871:4914   */\n      mstore\n        /* \"#utility.yul\":4930:4948   */\n      0x44\n      dup2\n      add\n        /* \"#utility.yul\":4923:4957   */\n      dup5\n      swap1\n      mstore\n      sub(shl(0xa0, 0x01), 0x01)\n        /* \"RotyBroiStaking.sol\":5208:5229  therotybroiCollection */\n      immutable(\"0x8e8fab5f003314da8d1873ea7720e8d9f47650136d916064d1edb8a11d682624\")\n        /* \"RotyBroiStaking.sol\":5208:5242  therotybroiCollection.transferFrom */\n      and\n      swap1\n      0x23b872dd\n      swap1\n        /* \"#utility.yul\":4740:4758   */\n      0x64\n      add\n        /* \"RotyBroiStaking.sol\":5208:5282  therotybroiCollection.transferFrom(address(this), msg.sender, _rotybroiId) */\n      0x00\n      mload(0x40)\n      dup1\n      dup4\n      sub\n      dup2\n      0x00\n      dup8\n      dup1\n      extcodesize\n      iszero\n      dup1\n      iszero\n      tag_88\n      jumpi\n      0x00\n      dup1\n      revert\n    tag_88:\n      pop\n      gas\n      call\n      iszero\n      dup1\n      iszero\n      tag_90\n      jumpi\n      returndatasize\n      0x00\n      dup1\n      returndatacopy\n      revert(0x00, returndatasize)\n    tag_90:\n      pop\n      pop\n        /* \"RotyBroiStaking.sol\":5358:5368  msg.sender */\n      caller\n        /* \"RotyBroiStaking.sol\":5350:5369  stakers[msg.sender] */\n      0x00\n      swap1\n      dup2\n      mstore\n        /* \"RotyBroiStaking.sol\":5350:5357  stakers */\n      0x02\n        /* \"RotyBroiStaking.sol\":5350:5369  stakers[msg.sender] */\n      0x20\n      dup2\n      swap1\n      mstore\n      0x40\n      dup3\n      keccak256\n        /* \"RotyBroiStaking.sol\":5389:5404  block.timestamp */\n      timestamp\n        /* \"RotyBroiStaking.sol\":5350:5386  stakers[msg.sender].timeOfLastUpdate */\n      swap2\n      add\n        /* \"RotyBroiStaking.sol\":5350:5404  stakers[msg.sender].timeOfLastUpdate = block.timestamp */\n      sstore\n        /* \"@openzeppelin/contracts/security/ReentrancyGuard.sol\":1701:1702   */\n      0x01\n        /* \"@openzeppelin/contracts/security/ReentrancyGuard.sol\":2628:2650   */\n      swap1\n      sstore\n      pop\n      pop\n      pop\n      pop\n      pop\n        /* \"RotyBroiStaking.sol\":3554:5411  function withdraw(uint256 _rotybroiId) external nonReentrant {... */\n      jump\t// out\n        /* \"RotyBroiStaking.sol\":5574:5954  function claimRewards() external {... */\n    tag_19:\n        /* \"RotyBroiStaking.sol\":5686:5696  msg.sender */\n      caller\n        /* \"RotyBroiStaking.sol\":5617:5632  uint256 rewards */\n      0x00\n        /* \"RotyBroiStaking.sol\":5678:5697  stakers[msg.sender] */\n      dup2\n      dup2\n      mstore\n        /* \"RotyBroiStaking.sol\":5678:5685  stakers */\n      0x02\n        /* \"RotyBroiStaking.sol\":5678:5697  stakers[msg.sender] */\n      0x20\n      mstore\n      0x40\n      dup2\n      keccak256\n        /* \"RotyBroiStaking.sol\":5678:5714  stakers[msg.sender].unclaimedRewards */\n      0x03\n      add\n      sload\n        /* \"RotyBroiStaking.sol\":5617:5632  uint256 rewards */\n      swap1\n      swap2\n        /* \"RotyBroiStaking.sol\":5635:5663  calculateRewards(msg.sender) */\n      tag_92\n      swap1\n        /* \"RotyBroiStaking.sol\":5635:5651  calculateRewards */\n      tag_64\n        /* \"RotyBroiStaking.sol\":5635:5663  calculateRewards(msg.sender) */\n      jump\t// in\n    tag_92:\n        /* \"RotyBroiStaking.sol\":5635:5714  calculateRewards(msg.sender) +... */\n      tag_93\n      swap2\n      swap1\n      tag_66\n      jump\t// in\n    tag_93:\n        /* \"RotyBroiStaking.sol\":5617:5714  uint256 rewards = calculateRewards(msg.sender) +... */\n      swap1\n      pop\n        /* \"RotyBroiStaking.sol\":5742:5743  0 */\n      0x00\n        /* \"RotyBroiStaking.sol\":5732:5739  rewards */\n      dup2\n        /* \"RotyBroiStaking.sol\":5732:5743  rewards > 0 */\n      gt\n        /* \"RotyBroiStaking.sol\":5724:5780  require(rewards > 0, \"You have no OiOi tokens to claim\") */\n      tag_94\n      jumpi\n      mload(0x40)\n      shl(0xe5, 0x461bcd)\n      dup2\n      mstore\n        /* \"#utility.yul\":5170:5172   */\n      0x20\n        /* \"RotyBroiStaking.sol\":5724:5780  require(rewards > 0, \"You have no OiOi tokens to claim\") */\n      0x04\n      dup3\n      add\n        /* \"#utility.yul\":5152:5173   */\n      dup2\n      swap1\n      mstore\n        /* \"#utility.yul\":5189:5207   */\n      0x24\n      dup3\n      add\n        /* \"#utility.yul\":5182:5212   */\n      mstore\n        /* \"#utility.yul\":5248:5282   */\n      0x596f752068617665206e6f204f694f6920746f6b656e7320746f20636c61696d\n        /* \"#utility.yul\":5228:5246   */\n      0x44\n      dup3\n      add\n        /* \"#utility.yul\":5221:5283   */\n      mstore\n        /* \"#utility.yul\":5300:5318   */\n      0x64\n      add\n        /* \"RotyBroiStaking.sol\":5724:5780  require(rewards > 0, \"You have no OiOi tokens to claim\") */\n      tag_54\n        /* \"#utility.yul\":4968:5324   */\n      jump\n        /* \"RotyBroiStaking.sol\":5724:5780  require(rewards > 0, \"You have no OiOi tokens to claim\") */\n    tag_94:\n        /* \"RotyBroiStaking.sol\":5798:5808  msg.sender */\n      caller\n        /* \"RotyBroiStaking.sol\":5790:5809  stakers[msg.sender] */\n      0x00\n      dup2\n      dup2\n      mstore\n        /* \"RotyBroiStaking.sol\":5790:5797  stakers */\n      0x02\n        /* \"RotyBroiStaking.sol\":5790:5809  stakers[msg.sender] */\n      0x20\n      dup2\n      swap1\n      mstore\n      0x40\n      dup3\n      keccak256\n        /* \"RotyBroiStaking.sol\":5829:5844  block.timestamp */\n      timestamp\n        /* \"RotyBroiStaking.sol\":5790:5826  stakers[msg.sender].timeOfLastUpdate */\n      swap2\n      dup2\n      add\n        /* \"RotyBroiStaking.sol\":5790:5844  stakers[msg.sender].timeOfLastUpdate = block.timestamp */\n      swap2\n      swap1\n      swap2\n      sstore\n        /* \"RotyBroiStaking.sol\":5854:5890  stakers[msg.sender].unclaimedRewards */\n      0x03\n      add\n        /* \"RotyBroiStaking.sol\":5854:5894  stakers[msg.sender].unclaimedRewards = 0 */\n      sstore\n        /* \"RotyBroiStaking.sol\":5904:5947  oioiToken.safeTransfer(msg.sender, rewards) */\n      tag_97\n      swap1\n        /* \"RotyBroiStaking.sol\":5904:5913  oioiToken */\n      immutable(\"0x5c4c6aa067b6f8e6cb38e6ab843832a94d1712d661a04d73c517d6a1931a9e5d\")\n      sub(shl(0xa0, 0x01), 0x01)\n        /* \"RotyBroiStaking.sol\":5904:5926  oioiToken.safeTransfer */\n      and\n      swap1\n        /* \"RotyBroiStaking.sol\":5939:5946  rewards */\n      dup4\n        /* \"RotyBroiStaking.sol\":5904:5926  oioiToken.safeTransfer */\n      tag_98\n        /* \"RotyBroiStaking.sol\":5904:5947  oioiToken.safeTransfer(msg.sender, rewards) */\n      jump\t// in\n    tag_97:\n        /* \"RotyBroiStaking.sol\":5607:5954  {... */\n      pop\n        /* \"RotyBroiStaking.sol\":5574:5954  function claimRewards() external {... */\n      jump\t// out\n        /* \"RotyBroiStaking.sol\":6218:7113  function getStakedRotyBrois(address _user) public view returns (StakedRotyBroi[] memory) {... */\n    tag_33:\n      sub(shl(0xa0, 0x01), 0x01)\n        /* \"RotyBroiStaking.sol\":6362:6376  stakers[_user] */\n      dup2\n      and\n        /* \"RotyBroiStaking.sol\":6392:6393  0 */\n      0x00\n        /* \"RotyBroiStaking.sol\":6362:6376  stakers[_user] */\n      swap1\n      dup2\n      mstore\n        /* \"RotyBroiStaking.sol\":6362:6369  stakers */\n      0x02\n        /* \"RotyBroiStaking.sol\":6362:6376  stakers[_user] */\n      0x20\n      mstore\n      0x40\n      swap1\n      keccak256\n        /* \"RotyBroiStaking.sol\":6362:6389  stakers[_user].amountStaked */\n      sload\n        /* \"RotyBroiStaking.sol\":6282:6305  StakedRotyBroi[] memory */\n      0x60\n      swap1\n        /* \"RotyBroiStaking.sol\":6362:6393  stakers[_user].amountStaked > 0 */\n      iszero\n        /* \"RotyBroiStaking.sol\":6358:7107  if (stakers[_user].amountStaked > 0) {... */\n      tag_100\n      jumpi\n      sub(shl(0xa0, 0x01), 0x01)\n        /* \"RotyBroiStaking.sol\":6571:6585  stakers[_user] */\n      dup3\n      and\n        /* \"RotyBroiStaking.sol\":6507:6547  StakedRotyBroi[] memory _stakedRotyBrois */\n      0x00\n        /* \"RotyBroiStaking.sol\":6571:6585  stakers[_user] */\n      swap1\n      dup2\n      mstore\n        /* \"RotyBroiStaking.sol\":6571:6578  stakers */\n      0x02\n        /* \"RotyBroiStaking.sol\":6571:6585  stakers[_user] */\n      0x20\n      mstore\n      0x40\n      dup2\n      keccak256\n        /* \"RotyBroiStaking.sol\":6571:6598  stakers[_user].amountStaked */\n      sload\n        /* \"RotyBroiStaking.sol\":6550:6599  new StakedRotyBroi[](stakers[_user].amountStaked) */\n      0xffffffffffffffff\n      dup2\n      gt\n      iszero\n      tag_102\n      jumpi\n      tag_102\n      tag_103\n      jump\t// in\n    tag_102:\n      mload(0x40)\n      swap1\n      dup1\n      dup3\n      mstore\n      dup1\n      0x20\n      mul\n      0x20\n      add\n      dup3\n      add\n      0x40\n      mstore\n      dup1\n      iszero\n      tag_104\n      jumpi\n      dup2\n      0x20\n      add\n    tag_105:\n      0x40\n      dup1\n      mload\n      dup1\n      dup3\n      add\n      swap1\n      swap2\n      mstore\n      0x00\n      dup1\n      dup3\n      mstore\n      0x20\n      dup3\n      add\n      mstore\n      dup2\n      mstore\n      0x20\n      add\n      swap1\n      0x01\n      swap1\n      sub\n      swap1\n      dup2\n      tag_105\n      jumpi\n      swap1\n      pop\n    tag_104:\n      pop\n        /* \"RotyBroiStaking.sol\":6507:6599  StakedRotyBroi[] memory _stakedRotyBrois = new StakedRotyBroi[](stakers[_user].amountStaked) */\n      swap1\n      pop\n        /* \"RotyBroiStaking.sol\":6613:6627  uint256 _index */\n      0x00\n        /* \"RotyBroiStaking.sol\":6651:6660  uint256 j */\n      dup1\n        /* \"RotyBroiStaking.sol\":6646:6939  for (uint256 j = 0; j < stakers[_user].stakedRotyBrois.length; j++) {... */\n    tag_108:\n      sub(shl(0xa0, 0x01), 0x01)\n        /* \"RotyBroiStaking.sol\":6670:6684  stakers[_user] */\n      dup6\n      and\n      0x00\n      swap1\n      dup2\n      mstore\n        /* \"RotyBroiStaking.sol\":6670:6677  stakers */\n      0x02\n        /* \"RotyBroiStaking.sol\":6670:6684  stakers[_user] */\n      0x20\n      mstore\n      0x40\n      swap1\n      keccak256\n        /* \"RotyBroiStaking.sol\":6670:6700  stakers[_user].stakedRotyBrois */\n      0x01\n      add\n        /* \"RotyBroiStaking.sol\":6670:6707  stakers[_user].stakedRotyBrois.length */\n      sload\n        /* \"RotyBroiStaking.sol\":6666:6707  j < stakers[_user].stakedRotyBrois.length */\n      dup2\n      lt\n        /* \"RotyBroiStaking.sol\":6646:6939  for (uint256 j = 0; j < stakers[_user].stakedRotyBrois.length; j++) {... */\n      iszero\n      tag_109\n      jumpi\n      sub(shl(0xa0, 0x01), 0x01)\n        /* \"RotyBroiStaking.sol\":6736:6750  stakers[_user] */\n      dup6\n      and\n        /* \"RotyBroiStaking.sol\":6789:6790  0 */\n      0x00\n        /* \"RotyBroiStaking.sol\":6736:6750  stakers[_user] */\n      swap1\n      dup2\n      mstore\n        /* \"RotyBroiStaking.sol\":6736:6743  stakers */\n      0x02\n        /* \"RotyBroiStaking.sol\":6736:6750  stakers[_user] */\n      0x20\n      mstore\n      0x40\n      dup2\n      keccak256\n        /* \"RotyBroiStaking.sol\":6736:6766  stakers[_user].stakedRotyBrois */\n      0x01\n      add\n        /* \"RotyBroiStaking.sol\":6736:6769  stakers[_user].stakedRotyBrois[j] */\n      dup1\n      sload\n        /* \"RotyBroiStaking.sol\":6767:6768  j */\n      dup4\n      swap1\n        /* \"RotyBroiStaking.sol\":6736:6769  stakers[_user].stakedRotyBrois[j] */\n      dup2\n      lt\n      tag_112\n      jumpi\n      tag_112\n      tag_72\n      jump\t// in\n    tag_112:\n      0x00\n      swap2\n      dup3\n      mstore\n      0x20\n      swap1\n      swap2\n      keccak256\n      0x02\n      swap1\n      swap2\n      mul\n      add\n        /* \"RotyBroiStaking.sol\":6736:6776  stakers[_user].stakedRotyBrois[j].staker */\n      sload\n      sub(shl(0xa0, 0x01), 0x01)\n      and\n        /* \"RotyBroiStaking.sol\":6736:6792  stakers[_user].stakedRotyBrois[j].staker != (address(0)) */\n      eq\n        /* \"RotyBroiStaking.sol\":6732:6925  if (stakers[_user].stakedRotyBrois[j].staker != (address(0))) {... */\n      tag_114\n      jumpi\n      sub(shl(0xa0, 0x01), 0x01)\n        /* \"RotyBroiStaking.sol\":6843:6857  stakers[_user] */\n      dup6\n      and\n      0x00\n      swap1\n      dup2\n      mstore\n        /* \"RotyBroiStaking.sol\":6843:6850  stakers */\n      0x02\n        /* \"RotyBroiStaking.sol\":6843:6857  stakers[_user] */\n      0x20\n      mstore\n      0x40\n      swap1\n      keccak256\n        /* \"RotyBroiStaking.sol\":6843:6873  stakers[_user].stakedRotyBrois */\n      0x01\n      add\n        /* \"RotyBroiStaking.sol\":6843:6876  stakers[_user].stakedRotyBrois[j] */\n      dup1\n      sload\n        /* \"RotyBroiStaking.sol\":6874:6875  j */\n      dup3\n      swap1\n        /* \"RotyBroiStaking.sol\":6843:6876  stakers[_user].stakedRotyBrois[j] */\n      dup2\n      lt\n      tag_116\n      jumpi\n      tag_116\n      tag_72\n      jump\t// in\n    tag_116:\n      0x00\n      swap2\n      dup3\n      mstore\n      0x20\n      swap2\n      dup3\n      swap1\n      keccak256\n        /* \"RotyBroiStaking.sol\":6816:6876  _stakedRotyBrois[_index] = stakers[_user].stakedRotyBrois[j] */\n      0x40\n      dup1\n      mload\n      dup1\n      dup3\n      add\n      swap1\n      swap2\n      mstore\n        /* \"RotyBroiStaking.sol\":6843:6876  stakers[_user].stakedRotyBrois[j] */\n      0x02\n      swap1\n      swap3\n      mul\n      add\n        /* \"RotyBroiStaking.sol\":6816:6876  _stakedRotyBrois[_index] = stakers[_user].stakedRotyBrois[j] */\n      dup1\n      sload\n      sub(shl(0xa0, 0x01), 0x01)\n      and\n      dup3\n      mstore\n      0x01\n      add\n      sload\n      swap2\n      dup2\n      add\n      swap2\n      swap1\n      swap2\n      mstore\n        /* \"RotyBroiStaking.sol\":6816:6840  _stakedRotyBrois[_index] */\n      dup4\n      mload\n        /* \"RotyBroiStaking.sol\":6816:6832  _stakedRotyBrois */\n      dup5\n      swap1\n        /* \"RotyBroiStaking.sol\":6833:6839  _index */\n      dup5\n      swap1\n        /* \"RotyBroiStaking.sol\":6816:6840  _stakedRotyBrois[_index] */\n      dup2\n      lt\n      tag_119\n      jumpi\n      tag_119\n      tag_72\n      jump\t// in\n    tag_119:\n      0x20\n      mul\n      0x20\n      add\n      add\n        /* \"RotyBroiStaking.sol\":6816:6876  _stakedRotyBrois[_index] = stakers[_user].stakedRotyBrois[j] */\n      dup2\n      swap1\n      mstore\n      pop\n        /* \"RotyBroiStaking.sol\":6898:6906  _index++ */\n      dup2\n      dup1\n      tag_120\n      swap1\n      tag_80\n      jump\t// in\n    tag_120:\n      swap3\n      pop\n      pop\n        /* \"RotyBroiStaking.sol\":6732:6925  if (stakers[_user].stakedRotyBrois[j].staker != (address(0))) {... */\n    tag_114:\n        /* \"RotyBroiStaking.sol\":6709:6712  j++ */\n      dup1\n      tag_121\n      dup2\n      tag_80\n      jump\t// in\n    tag_121:\n      swap2\n      pop\n      pop\n        /* \"RotyBroiStaking.sol\":6646:6939  for (uint256 j = 0; j < stakers[_user].stakedRotyBrois.length; j++) {... */\n      jump(tag_108)\n    tag_109:\n      pop\n        /* \"RotyBroiStaking.sol\":6960:6976  _stakedRotyBrois */\n      swap1\n      swap4\n        /* \"RotyBroiStaking.sol\":6218:7113  function getStakedRotyBrois(address _user) public view returns (StakedRotyBroi[] memory) {... */\n      swap3\n      pop\n      pop\n      pop\n      jump\t// out\n        /* \"RotyBroiStaking.sol\":6358:7107  if (stakers[_user].amountStaked > 0) {... */\n    tag_100:\n        /* \"RotyBroiStaking.sol\":7073:7096  new StakedRotyBroi[](0) */\n      0x40\n      dup1\n      mload\n        /* \"RotyBroiStaking.sol\":7094:7095  0 */\n      0x00\n        /* \"RotyBroiStaking.sol\":7073:7096  new StakedRotyBroi[](0) */\n      dup1\n      dup3\n      mstore\n      0x20\n      dup3\n      add\n      swap1\n      swap3\n      mstore\n      swap1\n      jump(tag_125)\n    tag_126:\n      0x40\n      dup1\n      mload\n      dup1\n      dup3\n      add\n      swap1\n      swap2\n      mstore\n      0x00\n      dup1\n      dup3\n      mstore\n      0x20\n      dup3\n      add\n      mstore\n      dup2\n      mstore\n      0x20\n      add\n      swap1\n      0x01\n      swap1\n      sub\n      swap1\n      dup2\n      tag_126\n      jumpi\n      swap1\n      pop\n    tag_125:\n      pop\n        /* \"RotyBroiStaking.sol\":7066:7096  return new StakedRotyBroi[](0) */\n      swap3\n        /* \"RotyBroiStaking.sol\":6218:7113  function getStakedRotyBrois(address _user) public view returns (StakedRotyBroi[] memory) {... */\n      swap2\n      pop\n      pop\n      jump\t// out\n        /* \"RotyBroiStaking.sol\":2011:3334  function stake(uint256 _rotybroiId) external nonReentrant {... */\n    tag_38:\n        /* \"@openzeppelin/contracts/security/ReentrancyGuard.sol\":1744:1745   */\n      0x02\n        /* \"@openzeppelin/contracts/security/ReentrancyGuard.sol\":2325:2332   */\n      sload(0x00)\n        /* \"@openzeppelin/contracts/security/ReentrancyGuard.sol\":2325:2344   */\n      sub\n        /* \"@openzeppelin/contracts/security/ReentrancyGuard.sol\":2317:2380   */\n      tag_129\n      jumpi\n      mload(0x40)\n      shl(0xe5, 0x461bcd)\n      dup2\n      mstore\n        /* \"#utility.yul\":2893:2895   */\n      0x20\n        /* \"@openzeppelin/contracts/security/ReentrancyGuard.sol\":2317:2380   */\n      0x04\n      dup3\n      add\n        /* \"#utility.yul\":2875:2896   */\n      mstore\n        /* \"#utility.yul\":2932:2934   */\n      0x1f\n        /* \"#utility.yul\":2912:2930   */\n      0x24\n      dup3\n      add\n        /* \"#utility.yul\":2905:2935   */\n      mstore\n        /* \"#utility.yul\":2971:3004   */\n      0x5265656e7472616e637947756172643a207265656e7472616e742063616c6c00\n        /* \"#utility.yul\":2951:2969   */\n      0x44\n      dup3\n      add\n        /* \"#utility.yul\":2944:3005   */\n      mstore\n        /* \"#utility.yul\":3022:3040   */\n      0x64\n      add\n        /* \"@openzeppelin/contracts/security/ReentrancyGuard.sol\":2317:2380   */\n      tag_54\n        /* \"#utility.yul\":2691:3046   */\n      jump\n        /* \"@openzeppelin/contracts/security/ReentrancyGuard.sol\":2317:2380   */\n    tag_129:\n        /* \"@openzeppelin/contracts/security/ReentrancyGuard.sol\":1744:1745   */\n      0x02\n        /* \"@openzeppelin/contracts/security/ReentrancyGuard.sol\":2455:2462   */\n      0x00\n        /* \"@openzeppelin/contracts/security/ReentrancyGuard.sol\":2455:2473   */\n      dup2\n      dup2\n      sstore\n        /* \"RotyBroiStaking.sol\":2179:2189  msg.sender */\n      caller\n        /* \"RotyBroiStaking.sol\":2171:2190  stakers[msg.sender] */\n      dup2\n      mstore\n      0x20\n      swap2\n      swap1\n      swap2\n      mstore\n      0x40\n      swap1\n      keccak256\n        /* \"RotyBroiStaking.sol\":2171:2203  stakers[msg.sender].amountStaked */\n      sload\n        /* \"RotyBroiStaking.sol\":2171:2207  stakers[msg.sender].amountStaked > 0 */\n      iszero\n        /* \"RotyBroiStaking.sol\":2167:2341  if (stakers[msg.sender].amountStaked > 0) {... */\n      tag_132\n      jumpi\n        /* \"RotyBroiStaking.sol\":2223:2238  uint256 rewards */\n      0x00\n        /* \"RotyBroiStaking.sol\":2241:2269  calculateRewards(msg.sender) */\n      tag_133\n        /* \"RotyBroiStaking.sol\":2258:2268  msg.sender */\n      caller\n        /* \"RotyBroiStaking.sol\":2241:2257  calculateRewards */\n      tag_64\n        /* \"RotyBroiStaking.sol\":2241:2269  calculateRewards(msg.sender) */\n      jump\t// in\n    tag_133:\n        /* \"RotyBroiStaking.sol\":2291:2301  msg.sender */\n      caller\n        /* \"RotyBroiStaking.sol\":2283:2302  stakers[msg.sender] */\n      0x00\n      swap1\n      dup2\n      mstore\n        /* \"RotyBroiStaking.sol\":2283:2290  stakers */\n      0x02\n        /* \"RotyBroiStaking.sol\":2283:2302  stakers[msg.sender] */\n      0x20\n      mstore\n      0x40\n      dup2\n      keccak256\n        /* \"RotyBroiStaking.sol\":2283:2319  stakers[msg.sender].unclaimedRewards */\n      0x03\n      add\n        /* \"RotyBroiStaking.sol\":2283:2330  stakers[msg.sender].unclaimedRewards += rewards */\n      dup1\n      sload\n        /* \"RotyBroiStaking.sol\":2223:2269  uint256 rewards = calculateRewards(msg.sender) */\n      swap3\n      swap4\n      pop\n      dup4\n      swap3\n        /* \"RotyBroiStaking.sol\":2283:2319  stakers[msg.sender].unclaimedRewards */\n      swap1\n      swap2\n        /* \"RotyBroiStaking.sol\":2283:2302  stakers[msg.sender] */\n      swap1\n        /* \"RotyBroiStaking.sol\":2283:2330  stakers[msg.sender].unclaimedRewards += rewards */\n      tag_134\n      swap1\n        /* \"RotyBroiStaking.sol\":2223:2269  uint256 rewards = calculateRewards(msg.sender) */\n      dup5\n      swap1\n        /* \"RotyBroiStaking.sol\":2283:2330  stakers[msg.sender].unclaimedRewards += rewards */\n      tag_66\n      jump\t// in\n    tag_134:\n      swap1\n      swap2\n      sstore\n      pop\n      pop\n      pop\n        /* \"RotyBroiStaking.sol\":2167:2341  if (stakers[msg.sender].amountStaked > 0) {... */\n    tag_132:\n        /* \"RotyBroiStaking.sol\":2433:2475  therotybroiCollection.ownerOf(_rotybroiId) */\n      mload(0x40)\n      shl(0xe1, 0x31a9108f)\n      dup2\n      mstore\n      0x04\n      dup2\n      add\n        /* \"#utility.yul\":2655:2680   */\n      dup3\n      swap1\n      mstore\n        /* \"RotyBroiStaking.sol\":2479:2489  msg.sender */\n      caller\n      swap1\n      sub(shl(0xa0, 0x01), 0x01)\n        /* \"RotyBroiStaking.sol\":2433:2454  therotybroiCollection */\n      immutable(\"0x8e8fab5f003314da8d1873ea7720e8d9f47650136d916064d1edb8a11d682624\")\n        /* \"RotyBroiStaking.sol\":2433:2462  therotybroiCollection.ownerOf */\n      and\n      swap1\n      0x6352211e\n      swap1\n        /* \"#utility.yul\":2628:2646   */\n      0x24\n      add\n        /* \"RotyBroiStaking.sol\":2433:2475  therotybroiCollection.ownerOf(_rotybroiId) */\n      0x20\n      mload(0x40)\n      dup1\n      dup4\n      sub\n      dup2\n      dup7\n      gas\n      staticcall\n      iszero\n      dup1\n      iszero\n      tag_137\n      jumpi\n      returndatasize\n      0x00\n      dup1\n      returndatacopy\n      revert(0x00, returndatasize)\n    tag_137:\n      pop\n      pop\n      pop\n      pop\n      mload(0x40)\n      returndatasize\n      not(0x1f)\n      0x1f\n      dup3\n      add\n      and\n      dup3\n      add\n      dup1\n      0x40\n      mstore\n      pop\n      dup2\n      add\n      swap1\n      tag_138\n      swap2\n      swap1\n      tag_139\n      jump\t// in\n    tag_138:\n      sub(shl(0xa0, 0x01), 0x01)\n        /* \"RotyBroiStaking.sol\":2433:2489  therotybroiCollection.ownerOf(_rotybroiId) == msg.sender */\n      and\n      eq\n        /* \"RotyBroiStaking.sol\":2412:2565  require(... */\n      tag_140\n      jumpi\n      mload(0x40)\n      shl(0xe5, 0x461bcd)\n      dup2\n      mstore\n        /* \"#utility.yul\":5919:5921   */\n      0x20\n        /* \"RotyBroiStaking.sol\":2412:2565  require(... */\n      0x04\n      dup3\n      add\n        /* \"#utility.yul\":5901:5922   */\n      mstore\n        /* \"#utility.yul\":5958:5960   */\n      0x32\n        /* \"#utility.yul\":5938:5956   */\n      0x24\n      dup3\n      add\n        /* \"#utility.yul\":5931:5961   */\n      mstore\n        /* \"#utility.yul\":5997:6031   */\n      0x596f7520617265206e6f7420234f694f6921212121204275792054686520524f\n        /* \"#utility.yul\":5977:5995   */\n      0x44\n      dup3\n      add\n        /* \"#utility.yul\":5970:6032   */\n      mstore\n        /* \"#utility.yul\":6068:6088   */\n      0x54592042524f49206e6f77212121212121210000000000000000000000000000\n        /* \"#utility.yul\":6048:6066   */\n      0x64\n      dup3\n      add\n        /* \"#utility.yul\":6041:6089   */\n      mstore\n        /* \"#utility.yul\":6106:6125   */\n      0x84\n      add\n        /* \"RotyBroiStaking.sol\":2412:2565  require(... */\n      tag_54\n        /* \"#utility.yul\":5717:6131   */\n      jump\n        /* \"RotyBroiStaking.sol\":2412:2565  require(... */\n    tag_140:\n        /* \"RotyBroiStaking.sol\":2652:2726  therotybroiCollection.transferFrom(msg.sender, address(this), _rotybroiId) */\n      mload(0x40)\n      shl(0xe0, 0x23b872dd)\n      dup2\n      mstore\n        /* \"RotyBroiStaking.sol\":2687:2697  msg.sender */\n      caller\n        /* \"RotyBroiStaking.sol\":2652:2726  therotybroiCollection.transferFrom(msg.sender, address(this), _rotybroiId) */\n      0x04\n      dup3\n      add\n        /* \"#utility.yul\":4828:4862   */\n      mstore\n        /* \"RotyBroiStaking.sol\":2707:2711  this */\n      address\n        /* \"#utility.yul\":4878:4896   */\n      0x24\n      dup3\n      add\n        /* \"#utility.yul\":4871:4914   */\n      mstore\n        /* \"#utility.yul\":4930:4948   */\n      0x44\n      dup2\n      add\n        /* \"#utility.yul\":4923:4957   */\n      dup3\n      swap1\n      mstore\n        /* \"RotyBroiStaking.sol\":2652:2673  therotybroiCollection */\n      immutable(\"0x8e8fab5f003314da8d1873ea7720e8d9f47650136d916064d1edb8a11d682624\")\n      sub(shl(0xa0, 0x01), 0x01)\n        /* \"RotyBroiStaking.sol\":2652:2686  therotybroiCollection.transferFrom */\n      and\n      swap1\n      0x23b872dd\n      swap1\n        /* \"#utility.yul\":4740:4758   */\n      0x64\n      add\n        /* \"RotyBroiStaking.sol\":2652:2726  therotybroiCollection.transferFrom(msg.sender, address(this), _rotybroiId) */\n      0x00\n      mload(0x40)\n      dup1\n      dup4\n      sub\n      dup2\n      0x00\n      dup8\n      dup1\n      extcodesize\n      iszero\n      dup1\n      iszero\n      tag_144\n      jumpi\n      0x00\n      dup1\n      revert\n    tag_144:\n      pop\n      gas\n      call\n      iszero\n      dup1\n      iszero\n      tag_146\n      jumpi\n      returndatasize\n      0x00\n      dup1\n      returndatacopy\n      revert(0x00, returndatasize)\n    tag_146:\n      pop\n      pop\n        /* \"RotyBroiStaking.sol\":2812:2851  StakedRotyBroi(msg.sender, _rotybroiId) */\n      0x40\n      dup1\n      mload\n      dup1\n      dup3\n      add\n      dup3\n      mstore\n        /* \"RotyBroiStaking.sol\":2827:2837  msg.sender */\n      caller\n        /* \"RotyBroiStaking.sol\":2812:2851  StakedRotyBroi(msg.sender, _rotybroiId) */\n      dup1\n      dup3\n      mstore\n      0x20\n      dup1\n      dup4\n      add\n      dup8\n      dup2\n      mstore\n      0x00\n        /* \"RotyBroiStaking.sol\":2917:2936  stakers[msg.sender] */\n      dup4\n      dup2\n      mstore\n        /* \"RotyBroiStaking.sol\":2917:2924  stakers */\n      0x02\n        /* \"RotyBroiStaking.sol\":2917:2936  stakers[msg.sender] */\n      dup1\n      dup5\n      mstore\n      swap6\n      dup2\n      keccak256\n        /* \"RotyBroiStaking.sol\":2917:2952  stakers[msg.sender].stakedRotyBrois */\n      0x01\n      dup1\n      dup3\n      add\n        /* \"RotyBroiStaking.sol\":2917:2973  stakers[msg.sender].stakedRotyBrois.push(stakedRotyBroi) */\n      dup1\n      sload\n      dup1\n      dup4\n      add\n      dup3\n      sstore\n      swap1\n      dup5\n      mstore\n      swap5\n      dup4\n      keccak256\n      dup8\n      mload\n      swap6\n      swap1\n      swap9\n      mul\n      swap1\n      swap8\n      add\n      dup1\n      sload\n      not(sub(shl(0xa0, 0x01), 0x01))\n      and\n      sub(shl(0xa0, 0x01), 0x01)\n      swap1\n      swap6\n      and\n      swap5\n      swap1\n      swap5\n      or\n      dup5\n      sstore\n      swap2\n      mload\n      swap3\n      swap1\n      swap6\n      add\n      swap2\n      swap1\n      swap2\n      sstore\n        /* \"RotyBroiStaking.sol\":3047:3066  stakers[msg.sender] */\n      swap1\n      dup4\n      mstore\n        /* \"RotyBroiStaking.sol\":3047:3081  stakers[msg.sender].amountStaked++ */\n      dup1\n      sload\n        /* \"RotyBroiStaking.sol\":2812:2851  StakedRotyBroi(msg.sender, _rotybroiId) */\n      swap2\n      swap5\n      pop\n        /* \"RotyBroiStaking.sol\":3047:3081  stakers[msg.sender].amountStaked++ */\n      swap1\n      swap3\n      pop\n        /* \"RotyBroiStaking.sol\":2917:2936  stakers[msg.sender] */\n      swap1\n        /* \"RotyBroiStaking.sol\":3047:3081  stakers[msg.sender].amountStaked++ */\n      tag_148\n      dup4\n      tag_80\n      jump\t// in\n    tag_148:\n      swap1\n      swap2\n      sstore\n      pop\n      pop\n      pop\n        /* \"RotyBroiStaking.sol\":3167:3193  stakerAddress[_rotybroiId] */\n      0x00\n      swap1\n      dup2\n      mstore\n        /* \"RotyBroiStaking.sol\":3167:3180  stakerAddress */\n      0x03\n        /* \"RotyBroiStaking.sol\":3167:3193  stakerAddress[_rotybroiId] */\n      0x20\n      swap1\n      dup2\n      mstore\n      0x40\n      dup1\n      dup4\n      keccak256\n        /* \"RotyBroiStaking.sol\":3167:3206  stakerAddress[_rotybroiId] = msg.sender */\n      dup1\n      sload\n      not(sub(shl(0xa0, 0x01), 0x01))\n      and\n        /* \"RotyBroiStaking.sol\":3196:3206  msg.sender */\n      caller\n        /* \"RotyBroiStaking.sol\":3167:3206  stakerAddress[_rotybroiId] = msg.sender */\n      swap1\n      dup2\n      or\n      swap1\n      swap2\n      sstore\n        /* \"RotyBroiStaking.sol\":3273:3292  stakers[msg.sender] */\n      dup4\n      mstore\n        /* \"RotyBroiStaking.sol\":3273:3280  stakers */\n      0x02\n        /* \"RotyBroiStaking.sol\":3273:3292  stakers[msg.sender] */\n      swap2\n      dup3\n      swap1\n      mstore\n      dup3\n      keccak256\n        /* \"RotyBroiStaking.sol\":3312:3327  block.timestamp */\n      timestamp\n        /* \"RotyBroiStaking.sol\":3273:3309  stakers[msg.sender].timeOfLastUpdate */\n      swap2\n      add\n        /* \"RotyBroiStaking.sol\":3273:3327  stakers[msg.sender].timeOfLastUpdate = block.timestamp */\n      sstore\n        /* \"RotyBroiStaking.sol\":3167:3206  stakerAddress[_rotybroiId] = msg.sender */\n      0x01\n        /* \"@openzeppelin/contracts/security/ReentrancyGuard.sol\":2628:2650   */\n      swap1\n      sstore\n        /* \"RotyBroiStaking.sol\":2011:3334  function stake(uint256 _rotybroiId) external nonReentrant {... */\n      jump\t// out\n        /* \"RotyBroiStaking.sol\":6007:6212  function availableRewards(address _staker) public view returns (uint256) {... */\n    tag_49:\n      sub(shl(0xa0, 0x01), 0x01)\n        /* \"RotyBroiStaking.sol\":6148:6164  stakers[_staker] */\n      dup2\n      and\n        /* \"RotyBroiStaking.sol\":6071:6078  uint256 */\n      0x00\n        /* \"RotyBroiStaking.sol\":6148:6164  stakers[_staker] */\n      swap1\n      dup2\n      mstore\n        /* \"RotyBroiStaking.sol\":6148:6155  stakers */\n      0x02\n        /* \"RotyBroiStaking.sol\":6148:6164  stakers[_staker] */\n      0x20\n      mstore\n      0x40\n      dup2\n      keccak256\n        /* \"RotyBroiStaking.sol\":6148:6181  stakers[_staker].unclaimedRewards */\n      0x03\n      add\n      sload\n        /* \"RotyBroiStaking.sol\":6071:6078  uint256 */\n      dup2\n      swap1\n        /* \"RotyBroiStaking.sol\":6108:6133  calculateRewards(_staker) */\n      tag_150\n        /* \"RotyBroiStaking.sol\":6156:6163  _staker */\n      dup5\n        /* \"RotyBroiStaking.sol\":6108:6124  calculateRewards */\n      tag_64\n        /* \"RotyBroiStaking.sol\":6108:6133  calculateRewards(_staker) */\n      jump\t// in\n    tag_150:\n        /* \"RotyBroiStaking.sol\":6108:6181  calculateRewards(_staker) +... */\n      tag_151\n      swap2\n      swap1\n      tag_66\n      jump\t// in\n    tag_151:\n        /* \"RotyBroiStaking.sol\":6090:6181  uint256 rewards = calculateRewards(_staker) +... */\n      swap4\n        /* \"RotyBroiStaking.sol\":6007:6212  function availableRewards(address _staker) public view returns (uint256) {... */\n      swap3\n      pop\n      pop\n      pop\n      jump\t// out\n        /* \"RotyBroiStaking.sol\":7342:7633  function calculateRewards(address _staker)... */\n    tag_64:\n        /* \"RotyBroiStaking.sol\":7603:7617  rewardsPerHour */\n      sload(0x01)\n      sub(shl(0xa0, 0x01), 0x01)\n        /* \"RotyBroiStaking.sol\":7560:7576  stakers[_staker] */\n      dup3\n      and\n        /* \"RotyBroiStaking.sol\":7432:7448  uint256 _rewards */\n      0x00\n        /* \"RotyBroiStaking.sol\":7560:7576  stakers[_staker] */\n      swap1\n      dup2\n      mstore\n        /* \"RotyBroiStaking.sol\":7560:7567  stakers */\n      0x02\n        /* \"RotyBroiStaking.sol\":7560:7576  stakers[_staker] */\n      0x20\n      dup2\n      swap1\n      mstore\n      0x40\n      dup3\n      keccak256\n        /* \"RotyBroiStaking.sol\":7560:7589  stakers[_staker].amountStaked */\n      dup1\n      sload\n        /* \"RotyBroiStaking.sol\":7507:7540  stakers[_staker].timeOfLastUpdate */\n      swap2\n      add\n      sload\n        /* \"RotyBroiStaking.sol\":7432:7448  uint256 _rewards */\n      swap2\n      swap3\n        /* \"RotyBroiStaking.sol\":7621:7625  3600 */\n      0x0e10\n      swap3\n        /* \"RotyBroiStaking.sol\":7603:7617  rewardsPerHour */\n      swap1\n      swap2\n        /* \"RotyBroiStaking.sol\":7560:7589  stakers[_staker].amountStaked */\n      swap1\n        /* \"RotyBroiStaking.sol\":7489:7540  block.timestamp - stakers[_staker].timeOfLastUpdate */\n      tag_153\n      swap1\n        /* \"RotyBroiStaking.sol\":7489:7504  block.timestamp */\n      timestamp\n        /* \"RotyBroiStaking.sol\":7489:7540  block.timestamp - stakers[_staker].timeOfLastUpdate */\n      tag_154\n      jump\t// in\n    tag_153:\n        /* \"RotyBroiStaking.sol\":7488:7589  (block.timestamp - stakers[_staker].timeOfLastUpdate) *... */\n      tag_155\n      swap2\n      swap1\n      tag_156\n      jump\t// in\n    tag_155:\n        /* \"RotyBroiStaking.sol\":7473:7617  (... */\n      tag_157\n      swap2\n      swap1\n      tag_156\n      jump\t// in\n    tag_157:\n        /* \"RotyBroiStaking.sol\":7472:7625  ((... */\n      tag_158\n      swap2\n      swap1\n      tag_159\n      jump\t// in\n    tag_158:\n        /* \"RotyBroiStaking.sol\":7464:7626  return (((... */\n      swap3\n        /* \"RotyBroiStaking.sol\":7342:7633  function calculateRewards(address _staker)... */\n      swap2\n      pop\n      pop\n      jump\t// out\n        /* \"@openzeppelin/contracts/token/ERC20/utils/SafeERC20.sol\":763:968   */\n    tag_98:\n        /* \"@openzeppelin/contracts/token/ERC20/utils/SafeERC20.sol\":902:960   */\n      0x40\n      dup1\n      mload\n      sub(shl(0xa0, 0x01), 0x01)\n        /* \"#utility.yul\":6853:6908   */\n      dup5\n      and\n        /* \"@openzeppelin/contracts/token/ERC20/utils/SafeERC20.sol\":902:960   */\n      0x24\n      dup3\n      add\n        /* \"#utility.yul\":6835:6909   */\n      mstore\n        /* \"#utility.yul\":6925:6943   */\n      0x44\n      dup1\n      dup3\n      add\n        /* \"#utility.yul\":6918:6952   */\n      dup5\n      swap1\n      mstore\n        /* \"@openzeppelin/contracts/token/ERC20/utils/SafeERC20.sol\":902:960   */\n      dup3\n      mload\n      dup1\n      dup4\n      sub\n      swap1\n      swap2\n      add\n      dup2\n      mstore\n        /* \"#utility.yul\":6808:6826   */\n      0x64\n      swap1\n      swap2\n      add\n        /* \"@openzeppelin/contracts/token/ERC20/utils/SafeERC20.sol\":902:960   */\n      swap1\n      swap2\n      mstore\n      0x20\n      dup2\n      add\n      dup1\n      mload\n      0xffffffffffffffffffffffffffffffffffffffffffffffffffffffff\n      and\n      shl(0xe0, 0xa9059cbb)\n      or\n      swap1\n      mstore\n        /* \"@openzeppelin/contracts/token/ERC20/utils/SafeERC20.sol\":875:961   */\n      tag_161\n      swap1\n        /* \"@openzeppelin/contracts/token/ERC20/utils/SafeERC20.sol\":895:900   */\n      dup5\n      swap1\n        /* \"@openzeppelin/contracts/token/ERC20/utils/SafeERC20.sol\":875:894   */\n      tag_164\n        /* \"@openzeppelin/contracts/token/ERC20/utils/SafeERC20.sol\":875:961   */\n      jump\t// in\n    tag_161:\n        /* \"@openzeppelin/contracts/token/ERC20/utils/SafeERC20.sol\":763:968   */\n      pop\n      pop\n      pop\n      jump\t// out\n        /* \"@openzeppelin/contracts/token/ERC20/utils/SafeERC20.sol\":3747:4453   */\n    tag_164:\n        /* \"@openzeppelin/contracts/token/ERC20/utils/SafeERC20.sol\":4166:4189   */\n      0x00\n        /* \"@openzeppelin/contracts/token/ERC20/utils/SafeERC20.sol\":4192:4261   */\n      tag_166\n        /* \"@openzeppelin/contracts/token/ERC20/utils/SafeERC20.sol\":4220:4224   */\n      dup3\n        /* \"@openzeppelin/contracts/token/ERC20/utils/SafeERC20.sol\":4192:4261   */\n      mload(0x40)\n      dup1\n      0x40\n      add\n      0x40\n      mstore\n      dup1\n      0x20\n      dup2\n      mstore\n      0x20\n      add\n      0x5361666545524332303a206c6f772d6c6576656c2063616c6c206661696c6564\n      dup2\n      mstore\n      pop\n        /* \"@openzeppelin/contracts/token/ERC20/utils/SafeERC20.sol\":4200:4205   */\n      dup6\n      sub(shl(0xa0, 0x01), 0x01)\n        /* \"@openzeppelin/contracts/token/ERC20/utils/SafeERC20.sol\":4192:4219   */\n      and\n      tag_167\n      swap1\n        /* \"@openzeppelin/contracts/token/ERC20/utils/SafeERC20.sol\":4192:4261   */\n      swap3\n      swap2\n      swap1\n      0xffffffff\n      and\n      jump\t// in\n    tag_166:\n        /* \"@openzeppelin/contracts/token/ERC20/utils/SafeERC20.sol\":4275:4292   */\n      dup1\n      mload\n        /* \"@openzeppelin/contracts/token/ERC20/utils/SafeERC20.sol\":4166:4261   */\n      swap1\n      swap2\n      pop\n        /* \"@openzeppelin/contracts/token/ERC20/utils/SafeERC20.sol\":4275:4296   */\n      iszero\n        /* \"@openzeppelin/contracts/token/ERC20/utils/SafeERC20.sol\":4271:4447   */\n      tag_161\n      jumpi\n        /* \"@openzeppelin/contracts/token/ERC20/utils/SafeERC20.sol\":4370:4380   */\n      dup1\n        /* \"@openzeppelin/contracts/token/ERC20/utils/SafeERC20.sol\":4359:4389   */\n      dup1\n      0x20\n      add\n      swap1\n      mload\n      dup2\n      add\n      swap1\n      tag_169\n      swap2\n      swap1\n      tag_170\n      jump\t// in\n    tag_169:\n        /* \"@openzeppelin/contracts/token/ERC20/utils/SafeERC20.sol\":4351:4436   */\n      tag_161\n      jumpi\n      mload(0x40)\n      shl(0xe5, 0x461bcd)\n      dup2\n      mstore\n        /* \"#utility.yul\":7447:7449   */\n      0x20\n        /* \"@openzeppelin/contracts/token/ERC20/utils/SafeERC20.sol\":4351:4436   */\n      0x04\n      dup3\n      add\n        /* \"#utility.yul\":7429:7450   */\n      mstore\n        /* \"#utility.yul\":7486:7488   */\n      0x2a\n        /* \"#utility.yul\":7466:7484   */\n      0x24\n      dup3\n      add\n        /* \"#utility.yul\":7459:7489   */\n      mstore\n        /* \"#utility.yul\":7525:7559   */\n      0x5361666545524332303a204552433230206f7065726174696f6e20646964206e\n        /* \"#utility.yul\":7505:7523   */\n      0x44\n      dup3\n      add\n        /* \"#utility.yul\":7498:7560   */\n      mstore\n        /* \"#utility.yul\":7596:7608   */\n      0x6f74207375636365656400000000000000000000000000000000000000000000\n        /* \"#utility.yul\":7576:7594   */\n      0x64\n      dup3\n      add\n        /* \"#utility.yul\":7569:7609   */\n      mstore\n        /* \"#utility.yul\":7626:7645   */\n      0x84\n      add\n        /* \"@openzeppelin/contracts/token/ERC20/utils/SafeERC20.sol\":4351:4436   */\n      tag_54\n        /* \"#utility.yul\":7245:7651   */\n      jump\n        /* \"@openzeppelin/contracts/utils/Address.sol\":3861:4084   */\n    tag_167:\n        /* \"@openzeppelin/contracts/utils/Address.sol\":3994:4006   */\n      0x60\n        /* \"@openzeppelin/contracts/utils/Address.sol\":4025:4077   */\n      tag_175\n        /* \"@openzeppelin/contracts/utils/Address.sol\":4047:4053   */\n      dup5\n        /* \"@openzeppelin/contracts/utils/Address.sol\":4055:4059   */\n      dup5\n        /* \"@openzeppelin/contracts/utils/Address.sol\":4061:4062   */\n      0x00\n        /* \"@openzeppelin/contracts/utils/Address.sol\":4064:4076   */\n      dup6\n        /* \"@openzeppelin/contracts/utils/Address.sol\":4025:4046   */\n      tag_176\n        /* \"@openzeppelin/contracts/utils/Address.sol\":4025:4077   */\n      jump\t// in\n    tag_175:\n        /* \"@openzeppelin/contracts/utils/Address.sol\":4018:4077   */\n      swap5\n        /* \"@openzeppelin/contracts/utils/Address.sol\":3861:4084   */\n      swap4\n      pop\n      pop\n      pop\n      pop\n      jump\t// out\n        /* \"@openzeppelin/contracts/utils/Address.sol\":4948:5447   */\n    tag_176:\n        /* \"@openzeppelin/contracts/utils/Address.sol\":5113:5125   */\n      0x60\n        /* \"@openzeppelin/contracts/utils/Address.sol\":5170:5175   */\n      dup3\n        /* \"@openzeppelin/contracts/utils/Address.sol\":5145:5166   */\n      selfbalance\n        /* \"@openzeppelin/contracts/utils/Address.sol\":5145:5175   */\n      lt\n      iszero\n        /* \"@openzeppelin/contracts/utils/Address.sol\":5137:5218   */\n      tag_178\n      jumpi\n      mload(0x40)\n      shl(0xe5, 0x461bcd)\n      dup2\n      mstore\n        /* \"#utility.yul\":7858:7860   */\n      0x20\n        /* \"@openzeppelin/contracts/utils/Address.sol\":5137:5218   */\n      0x04\n      dup3\n      add\n        /* \"#utility.yul\":7840:7861   */\n      mstore\n        /* \"#utility.yul\":7897:7899   */\n      0x26\n        /* \"#utility.yul\":7877:7895   */\n      0x24\n      dup3\n      add\n        /* \"#utility.yul\":7870:7900   */\n      mstore\n        /* \"#utility.yul\":7936:7970   */\n      0x416464726573733a20696e73756666696369656e742062616c616e636520666f\n        /* \"#utility.yul\":7916:7934   */\n      0x44\n      dup3\n      add\n        /* \"#utility.yul\":7909:7971   */\n      mstore\n        /* \"#utility.yul\":8007:8015   */\n      0x722063616c6c0000000000000000000000000000000000000000000000000000\n        /* \"#utility.yul\":7987:8005   */\n      0x64\n      dup3\n      add\n        /* \"#utility.yul\":7980:8016   */\n      mstore\n        /* \"#utility.yul\":8033:8052   */\n      0x84\n      add\n        /* \"@openzeppelin/contracts/utils/Address.sol\":5137:5218   */\n      tag_54\n        /* \"#utility.yul\":7656:8058   */\n      jump\n        /* \"@openzeppelin/contracts/utils/Address.sol\":5137:5218   */\n    tag_178:\n      sub(shl(0xa0, 0x01), 0x01)\n        /* \"@openzeppelin/contracts/utils/Address.sol\":1465:1484   */\n      dup6\n      and\n      extcodesize\n        /* \"@openzeppelin/contracts/utils/Address.sol\":5228:5288   */\n      tag_183\n      jumpi\n      mload(0x40)\n      shl(0xe5, 0x461bcd)\n      dup2\n      mstore\n        /* \"#utility.yul\":8265:8267   */\n      0x20\n        /* \"@openzeppelin/contracts/utils/Address.sol\":5228:5288   */\n      0x04\n      dup3\n      add\n        /* \"#utility.yul\":8247:8268   */\n      mstore\n        /* \"#utility.yul\":8304:8306   */\n      0x1d\n        /* \"#utility.yul\":8284:8302   */\n      0x24\n      dup3\n      add\n        /* \"#utility.yul\":8277:8307   */\n      mstore\n        /* \"#utility.yul\":8343:8374   */\n      0x416464726573733a2063616c6c20746f206e6f6e2d636f6e7472616374000000\n        /* \"#utility.yul\":8323:8341   */\n      0x44\n      dup3\n      add\n        /* \"#utility.yul\":8316:8375   */\n      mstore\n        /* \"#utility.yul\":8392:8410   */\n      0x64\n      add\n        /* \"@openzeppelin/contracts/utils/Address.sol\":5228:5288   */\n      tag_54\n        /* \"#utility.yul\":8063:8416   */\n      jump\n        /* \"@openzeppelin/contracts/utils/Address.sol\":5228:5288   */\n    tag_183:\n        /* \"@openzeppelin/contracts/utils/Address.sol\":5300:5312   */\n      0x00\n        /* \"@openzeppelin/contracts/utils/Address.sol\":5314:5337   */\n      dup1\n        /* \"@openzeppelin/contracts/utils/Address.sol\":5341:5347   */\n      dup7\n      sub(shl(0xa0, 0x01), 0x01)\n        /* \"@openzeppelin/contracts/utils/Address.sol\":5341:5352   */\n      and\n        /* \"@openzeppelin/contracts/utils/Address.sol\":5360:5365   */\n      dup6\n        /* \"@openzeppelin/contracts/utils/Address.sol\":5367:5371   */\n      dup8\n        /* \"@openzeppelin/contracts/utils/Address.sol\":5341:5372   */\n      mload(0x40)\n      tag_186\n      swap2\n      swap1\n      tag_187\n      jump\t// in\n    tag_186:\n      0x00\n      mload(0x40)\n      dup1\n      dup4\n      sub\n      dup2\n      dup6\n      dup8\n      gas\n      call\n      swap3\n      pop\n      pop\n      pop\n      returndatasize\n      dup1\n      0x00\n      dup2\n      eq\n      tag_190\n      jumpi\n      mload(0x40)\n      swap2\n      pop\n      and(add(returndatasize, 0x3f), not(0x1f))\n      dup3\n      add\n      0x40\n      mstore\n      returndatasize\n      dup3\n      mstore\n      returndatasize\n      0x00\n      0x20\n      dup5\n      add\n      returndatacopy\n      jump(tag_189)\n    tag_190:\n      0x60\n      swap2\n      pop\n    tag_189:\n      pop\n        /* \"@openzeppelin/contracts/utils/Address.sol\":5299:5372   */\n      swap2\n      pop\n      swap2\n      pop\n        /* \"@openzeppelin/contracts/utils/Address.sol\":5389:5440   */\n      tag_191\n        /* \"@openzeppelin/contracts/utils/Address.sol\":5406:5413   */\n      dup3\n        /* \"@openzeppelin/contracts/utils/Address.sol\":5415:5425   */\n      dup3\n        /* \"@openzeppelin/contracts/utils/Address.sol\":5427:5439   */\n      dup7\n        /* \"@openzeppelin/contracts/utils/Address.sol\":5389:5405   */\n      tag_192\n        /* \"@openzeppelin/contracts/utils/Address.sol\":5389:5440   */\n      jump\t// in\n    tag_191:\n        /* \"@openzeppelin/contracts/utils/Address.sol\":5382:5440   */\n      swap8\n        /* \"@openzeppelin/contracts/utils/Address.sol\":4948:5447   */\n      swap7\n      pop\n      pop\n      pop\n      pop\n      pop\n      pop\n      pop\n      jump\t// out\n        /* \"@openzeppelin/contracts/utils/Address.sol\":7561:8303   */\n    tag_192:\n        /* \"@openzeppelin/contracts/utils/Address.sol\":7707:7719   */\n      0x60\n        /* \"@openzeppelin/contracts/utils/Address.sol\":7735:7742   */\n      dup4\n        /* \"@openzeppelin/contracts/utils/Address.sol\":7731:8297   */\n      iszero\n      tag_195\n      jumpi\n      pop\n        /* \"@openzeppelin/contracts/utils/Address.sol\":7765:7775   */\n      dup2\n        /* \"@openzeppelin/contracts/utils/Address.sol\":7758:7775   */\n      jump(tag_151)\n        /* \"@openzeppelin/contracts/utils/Address.sol\":7731:8297   */\n    tag_195:\n        /* \"@openzeppelin/contracts/utils/Address.sol\":7876:7893   */\n      dup3\n      mload\n        /* \"@openzeppelin/contracts/utils/Address.sol\":7876:7897   */\n      iszero\n        /* \"@openzeppelin/contracts/utils/Address.sol\":7872:8287   */\n      tag_197\n      jumpi\n        /* \"@openzeppelin/contracts/utils/Address.sol\":8120:8130   */\n      dup3\n        /* \"@openzeppelin/contracts/utils/Address.sol\":8114:8131   */\n      mload\n        /* \"@openzeppelin/contracts/utils/Address.sol\":8180:8195   */\n      dup1\n        /* \"@openzeppelin/contracts/utils/Address.sol\":8167:8177   */\n      dup5\n        /* \"@openzeppelin/contracts/utils/Address.sol\":8163:8165   */\n      0x20\n        /* \"@openzeppelin/contracts/utils/Address.sol\":8159:8178   */\n      add\n        /* \"@openzeppelin/contracts/utils/Address.sol\":8152:8196   */\n      revert\n        /* \"@openzeppelin/contracts/utils/Address.sol\":7872:8287   */\n    tag_197:\n        /* \"@openzeppelin/contracts/utils/Address.sol\":8259:8271   */\n      dup2\n        /* \"@openzeppelin/contracts/utils/Address.sol\":8252:8272   */\n      mload(0x40)\n      shl(0xe5, 0x461bcd)\n      dup2\n      mstore\n      0x04\n      add\n      tag_54\n      swap2\n      swap1\n      tag_200\n      jump\t// in\n        /* \"#utility.yul\":14:194   */\n    tag_16:\n        /* \"#utility.yul\":73:79   */\n      0x00\n        /* \"#utility.yul\":126:128   */\n      0x20\n        /* \"#utility.yul\":114:123   */\n      dup3\n        /* \"#utility.yul\":105:112   */\n      dup5\n        /* \"#utility.yul\":101:124   */\n      sub\n        /* \"#utility.yul\":97:129   */\n      slt\n        /* \"#utility.yul\":94:146   */\n      iszero\n      tag_206\n      jumpi\n        /* \"#utility.yul\":142:143   */\n      0x00\n        /* \"#utility.yul\":139:140   */\n      dup1\n        /* \"#utility.yul\":132:144   */\n      revert\n        /* \"#utility.yul\":94:146   */\n    tag_206:\n      pop\n        /* \"#utility.yul\":165:188   */\n      calldataload\n      swap2\n        /* \"#utility.yul\":14:194   */\n      swap1\n      pop\n      jump\t// out\n        /* \"#utility.yul\":199:353   */\n    tag_201:\n      sub(shl(0xa0, 0x01), 0x01)\n        /* \"#utility.yul\":278:283   */\n      dup2\n        /* \"#utility.yul\":274:328   */\n      and\n        /* \"#utility.yul\":267:272   */\n      dup2\n        /* \"#utility.yul\":264:329   */\n      eq\n        /* \"#utility.yul\":254:347   */\n      tag_97\n      jumpi\n        /* \"#utility.yul\":343:344   */\n      0x00\n        /* \"#utility.yul\":340:341   */\n      dup1\n        /* \"#utility.yul\":333:345   */\n      revert\n        /* \"#utility.yul\":358:605   */\n    tag_22:\n        /* \"#utility.yul\":417:423   */\n      0x00\n        /* \"#utility.yul\":470:472   */\n      0x20\n        /* \"#utility.yul\":458:467   */\n      dup3\n        /* \"#utility.yul\":449:456   */\n      dup5\n        /* \"#utility.yul\":445:468   */\n      sub\n        /* \"#utility.yul\":441:473   */\n      slt\n        /* \"#utility.yul\":438:490   */\n      iszero\n      tag_210\n      jumpi\n        /* \"#utility.yul\":486:487   */\n      0x00\n        /* \"#utility.yul\":483:484   */\n      dup1\n        /* \"#utility.yul\":476:488   */\n      revert\n        /* \"#utility.yul\":438:490   */\n    tag_210:\n        /* \"#utility.yul\":525:534   */\n      dup2\n        /* \"#utility.yul\":512:535   */\n      calldataload\n        /* \"#utility.yul\":544:575   */\n      tag_151\n        /* \"#utility.yul\":569:574   */\n      dup2\n        /* \"#utility.yul\":544:575   */\n      tag_201\n      jump\t// in\n        /* \"#utility.yul\":1165:2012   */\n    tag_35:\n        /* \"#utility.yul\":1396:1398   */\n      0x20\n        /* \"#utility.yul\":1448:1469   */\n      dup1\n      dup3\n      mstore\n        /* \"#utility.yul\":1518:1531   */\n      dup3\n      mload\n        /* \"#utility.yul\":1421:1439   */\n      dup3\n      dup3\n      add\n        /* \"#utility.yul\":1540:1562   */\n      dup2\n      swap1\n      mstore\n        /* \"#utility.yul\":1367:1371   */\n      0x00\n      swap2\n        /* \"#utility.yul\":1396:1398   */\n      swap1\n        /* \"#utility.yul\":1581:1583   */\n      0x40\n      swap1\n        /* \"#utility.yul\":1599:1617   */\n      dup2\n      dup6\n      add\n      swap1\n        /* \"#utility.yul\":1640:1655   */\n      dup7\n      dup5\n      add\n        /* \"#utility.yul\":1367:1371   */\n      dup6\n        /* \"#utility.yul\":1683:1986   */\n    tag_215:\n        /* \"#utility.yul\":1697:1703   */\n      dup3\n        /* \"#utility.yul\":1694:1695   */\n      dup2\n        /* \"#utility.yul\":1691:1704   */\n      lt\n        /* \"#utility.yul\":1683:1986   */\n      iszero\n      tag_217\n      jumpi\n        /* \"#utility.yul\":1756:1769   */\n      dup2\n      mload\n        /* \"#utility.yul\":1798:1807   */\n      dup1\n      mload\n      sub(shl(0xa0, 0x01), 0x01)\n        /* \"#utility.yul\":1794:1852   */\n      and\n        /* \"#utility.yul\":1782:1853   */\n      dup6\n      mstore\n        /* \"#utility.yul\":1893:1904   */\n      dup7\n      add\n        /* \"#utility.yul\":1887:1905   */\n      mload\n        /* \"#utility.yul\":1873:1885   */\n      dup7\n      dup6\n      add\n        /* \"#utility.yul\":1866:1906   */\n      mstore\n        /* \"#utility.yul\":1926:1938   */\n      swap3\n      dup5\n      add\n      swap3\n        /* \"#utility.yul\":1961:1976   */\n      swap1\n      dup6\n      add\n      swap1\n        /* \"#utility.yul\":1719:1720   */\n      0x01\n        /* \"#utility.yul\":1712:1721   */\n      add\n        /* \"#utility.yul\":1683:1986   */\n      jump(tag_215)\n    tag_217:\n      pop\n        /* \"#utility.yul\":2003:2006   */\n      swap2\n      swap8\n        /* \"#utility.yul\":1165:2012   */\n      swap7\n      pop\n      pop\n      pop\n      pop\n      pop\n      pop\n      pop\n      jump\t// out\n        /* \"#utility.yul\":3887:4014   */\n    tag_202:\n        /* \"#utility.yul\":3948:3958   */\n      0x4e487b71\n        /* \"#utility.yul\":3943:3946   */\n      0xe0\n        /* \"#utility.yul\":3939:3959   */\n      shl\n        /* \"#utility.yul\":3936:3937   */\n      0x00\n        /* \"#utility.yul\":3929:3960   */\n      mstore\n        /* \"#utility.yul\":3979:3983   */\n      0x11\n        /* \"#utility.yul\":3976:3977   */\n      0x04\n        /* \"#utility.yul\":3969:3984   */\n      mstore\n        /* \"#utility.yul\":4003:4007   */\n      0x24\n        /* \"#utility.yul\":4000:4001   */\n      0x00\n        /* \"#utility.yul\":3993:4008   */\n      revert\n        /* \"#utility.yul\":4019:4147   */\n    tag_66:\n        /* \"#utility.yul\":4059:4062   */\n      0x00\n        /* \"#utility.yul\":4090:4091   */\n      dup3\n        /* \"#utility.yul\":4086:4092   */\n      not\n        /* \"#utility.yul\":4083:4084   */\n      dup3\n        /* \"#utility.yul\":4080:4093   */\n      gt\n        /* \"#utility.yul\":4077:4116   */\n      iszero\n      tag_227\n      jumpi\n        /* \"#utility.yul\":4096:4114   */\n      tag_227\n      tag_202\n      jump\t// in\n    tag_227:\n      pop\n        /* \"#utility.yul\":4132:4141   */\n      add\n      swap1\n        /* \"#utility.yul\":4019:4147   */\n      jump\t// out\n        /* \"#utility.yul\":4152:4279   */\n    tag_72:\n        /* \"#utility.yul\":4213:4223   */\n      0x4e487b71\n        /* \"#utility.yul\":4208:4211   */\n      0xe0\n        /* \"#utility.yul\":4204:4224   */\n      shl\n        /* \"#utility.yul\":4201:4202   */\n      0x00\n        /* \"#utility.yul\":4194:4225   */\n      mstore\n        /* \"#utility.yul\":4244:4248   */\n      0x32\n        /* \"#utility.yul\":4241:4242   */\n      0x04\n        /* \"#utility.yul\":4234:4249   */\n      mstore\n        /* \"#utility.yul\":4268:4272   */\n      0x24\n        /* \"#utility.yul\":4265:4266   */\n      0x00\n        /* \"#utility.yul\":4258:4273   */\n      revert\n        /* \"#utility.yul\":4284:4419   */\n    tag_80:\n        /* \"#utility.yul\":4323:4326   */\n      0x00\n        /* \"#utility.yul\":4344:4361   */\n      0x01\n      dup3\n      add\n        /* \"#utility.yul\":4341:4384   */\n      tag_231\n      jumpi\n        /* \"#utility.yul\":4364:4382   */\n      tag_231\n      tag_202\n      jump\t// in\n    tag_231:\n      pop\n        /* \"#utility.yul\":4411:4412   */\n      0x01\n        /* \"#utility.yul\":4400:4413   */\n      add\n      swap1\n        /* \"#utility.yul\":4284:4419   */\n      jump\t// out\n        /* \"#utility.yul\":4424:4560   */\n    tag_85:\n        /* \"#utility.yul\":4463:4466   */\n      0x00\n        /* \"#utility.yul\":4491:4496   */\n      dup2\n        /* \"#utility.yul\":4481:4520   */\n      tag_234\n      jumpi\n        /* \"#utility.yul\":4500:4518   */\n      tag_234\n      tag_202\n      jump\t// in\n    tag_234:\n      pop\n      not(0x00)\n        /* \"#utility.yul\":4536:4554   */\n      add\n      swap1\n        /* \"#utility.yul\":4424:4560   */\n      jump\t// out\n        /* \"#utility.yul\":5329:5456   */\n    tag_103:\n        /* \"#utility.yul\":5390:5400   */\n      0x4e487b71\n        /* \"#utility.yul\":5385:5388   */\n      0xe0\n        /* \"#utility.yul\":5381:5401   */\n      shl\n        /* \"#utility.yul\":5378:5379   */\n      0x00\n        /* \"#utility.yul\":5371:5402   */\n      mstore\n        /* \"#utility.yul\":5421:5425   */\n      0x41\n        /* \"#utility.yul\":5418:5419   */\n      0x04\n        /* \"#utility.yul\":5411:5426   */\n      mstore\n        /* \"#utility.yul\":5445:5449   */\n      0x24\n        /* \"#utility.yul\":5442:5443   */\n      0x00\n        /* \"#utility.yul\":5435:5450   */\n      revert\n        /* \"#utility.yul\":5461:5712   */\n    tag_139:\n        /* \"#utility.yul\":5531:5537   */\n      0x00\n        /* \"#utility.yul\":5584:5586   */\n      0x20\n        /* \"#utility.yul\":5572:5581   */\n      dup3\n        /* \"#utility.yul\":5563:5570   */\n      dup5\n        /* \"#utility.yul\":5559:5582   */\n      sub\n        /* \"#utility.yul\":5555:5587   */\n      slt\n        /* \"#utility.yul\":5552:5604   */\n      iszero\n      tag_239\n      jumpi\n        /* \"#utility.yul\":5600:5601   */\n      0x00\n        /* \"#utility.yul\":5597:5598   */\n      dup1\n        /* \"#utility.yul\":5590:5602   */\n      revert\n        /* \"#utility.yul\":5552:5604   */\n    tag_239:\n        /* \"#utility.yul\":5632:5641   */\n      dup2\n        /* \"#utility.yul\":5626:5642   */\n      mload\n        /* \"#utility.yul\":5651:5682   */\n      tag_151\n        /* \"#utility.yul\":5676:5681   */\n      dup2\n        /* \"#utility.yul\":5651:5682   */\n      tag_201\n      jump\t// in\n        /* \"#utility.yul\":6136:6261   */\n    tag_154:\n        /* \"#utility.yul\":6176:6180   */\n      0x00\n        /* \"#utility.yul\":6204:6205   */\n      dup3\n        /* \"#utility.yul\":6201:6202   */\n      dup3\n        /* \"#utility.yul\":6198:6206   */\n      lt\n        /* \"#utility.yul\":6195:6229   */\n      iszero\n      tag_244\n      jumpi\n        /* \"#utility.yul\":6209:6227   */\n      tag_244\n      tag_202\n      jump\t// in\n    tag_244:\n      pop\n        /* \"#utility.yul\":6246:6255   */\n      sub\n      swap1\n        /* \"#utility.yul\":6136:6261   */\n      jump\t// out\n        /* \"#utility.yul\":6266:6434   */\n    tag_156:\n        /* \"#utility.yul\":6306:6313   */\n      0x00\n        /* \"#utility.yul\":6372:6373   */\n      dup2\n        /* \"#utility.yul\":6368:6369   */\n      0x00\n        /* \"#utility.yul\":6364:6370   */\n      not\n        /* \"#utility.yul\":6360:6374   */\n      div\n        /* \"#utility.yul\":6357:6358   */\n      dup4\n        /* \"#utility.yul\":6354:6375   */\n      gt\n        /* \"#utility.yul\":6349:6350   */\n      dup3\n        /* \"#utility.yul\":6342:6351   */\n      iszero\n        /* \"#utility.yul\":6335:6352   */\n      iszero\n        /* \"#utility.yul\":6331:6376   */\n      and\n        /* \"#utility.yul\":6328:6399   */\n      iszero\n      tag_247\n      jumpi\n        /* \"#utility.yul\":6379:6397   */\n      tag_247\n      tag_202\n      jump\t// in\n    tag_247:\n      pop\n        /* \"#utility.yul\":6419:6428   */\n      mul\n      swap1\n        /* \"#utility.yul\":6266:6434   */\n      jump\t// out\n        /* \"#utility.yul\":6439:6656   */\n    tag_159:\n        /* \"#utility.yul\":6479:6480   */\n      0x00\n        /* \"#utility.yul\":6505:6506   */\n      dup3\n        /* \"#utility.yul\":6495:6627   */\n      tag_249\n      jumpi\n        /* \"#utility.yul\":6549:6559   */\n      0x4e487b71\n        /* \"#utility.yul\":6544:6547   */\n      0xe0\n        /* \"#utility.yul\":6540:6560   */\n      shl\n        /* \"#utility.yul\":6537:6538   */\n      0x00\n        /* \"#utility.yul\":6530:6561   */\n      mstore\n        /* \"#utility.yul\":6584:6588   */\n      0x12\n        /* \"#utility.yul\":6581:6582   */\n      0x04\n        /* \"#utility.yul\":6574:6589   */\n      mstore\n        /* \"#utility.yul\":6612:6616   */\n      0x24\n        /* \"#utility.yul\":6609:6610   */\n      0x00\n        /* \"#utility.yul\":6602:6617   */\n      revert\n        /* \"#utility.yul\":6495:6627   */\n    tag_249:\n      pop\n        /* \"#utility.yul\":6641:6650   */\n      div\n      swap1\n        /* \"#utility.yul\":6439:6656   */\n      jump\t// out\n        /* \"#utility.yul\":6963:7240   */\n    tag_170:\n        /* \"#utility.yul\":7030:7036   */\n      0x00\n        /* \"#utility.yul\":7083:7085   */\n      0x20\n        /* \"#utility.yul\":7071:7080   */\n      dup3\n        /* \"#utility.yul\":7062:7069   */\n      dup5\n        /* \"#utility.yul\":7058:7081   */\n      sub\n        /* \"#utility.yul\":7054:7086   */\n      slt\n        /* \"#utility.yul\":7051:7103   */\n      iszero\n      tag_252\n      jumpi\n        /* \"#utility.yul\":7099:7100   */\n      0x00\n        /* \"#utility.yul\":7096:7097   */\n      dup1\n        /* \"#utility.yul\":7089:7101   */\n      revert\n        /* \"#utility.yul\":7051:7103   */\n    tag_252:\n        /* \"#utility.yul\":7131:7140   */\n      dup2\n        /* \"#utility.yul\":7125:7141   */\n      mload\n        /* \"#utility.yul\":7184:7189   */\n      dup1\n        /* \"#utility.yul\":7177:7190   */\n      iszero\n        /* \"#utility.yul\":7170:7191   */\n      iszero\n        /* \"#utility.yul\":7163:7168   */\n      dup2\n        /* \"#utility.yul\":7160:7192   */\n      eq\n        /* \"#utility.yul\":7150:7210   */\n      tag_151\n      jumpi\n        /* \"#utility.yul\":7206:7207   */\n      0x00\n        /* \"#utility.yul\":7203:7204   */\n      dup1\n        /* \"#utility.yul\":7196:7208   */\n      revert\n        /* \"#utility.yul\":8421:8679   */\n    tag_203:\n        /* \"#utility.yul\":8493:8494   */\n      0x00\n        /* \"#utility.yul\":8503:8616   */\n    tag_258:\n        /* \"#utility.yul\":8517:8523   */\n      dup4\n        /* \"#utility.yul\":8514:8515   */\n      dup2\n        /* \"#utility.yul\":8511:8524   */\n      lt\n        /* \"#utility.yul\":8503:8616   */\n      iszero\n      tag_260\n      jumpi\n        /* \"#utility.yul\":8593:8604   */\n      dup2\n      dup2\n      add\n        /* \"#utility.yul\":8587:8605   */\n      mload\n        /* \"#utility.yul\":8574:8585   */\n      dup4\n      dup3\n      add\n        /* \"#utility.yul\":8567:8606   */\n      mstore\n        /* \"#utility.yul\":8539:8541   */\n      0x20\n        /* \"#utility.yul\":8532:8542   */\n      add\n        /* \"#utility.yul\":8503:8616   */\n      jump(tag_258)\n    tag_260:\n        /* \"#utility.yul\":8634:8640   */\n      dup4\n        /* \"#utility.yul\":8631:8632   */\n      dup2\n        /* \"#utility.yul\":8628:8641   */\n      gt\n        /* \"#utility.yul\":8625:8673   */\n      iszero\n      tag_261\n      jumpi\n        /* \"#utility.yul\":8669:8670   */\n      0x00\n        /* \"#utility.yul\":8660:8666   */\n      dup5\n        /* \"#utility.yul\":8655:8658   */\n      dup5\n        /* \"#utility.yul\":8651:8667   */\n      add\n        /* \"#utility.yul\":8644:8671   */\n      mstore\n        /* \"#utility.yul\":8625:8673   */\n    tag_261:\n      pop\n        /* \"#utility.yul\":8421:8679   */\n      pop\n      pop\n      pop\n      jump\t// out\n        /* \"#utility.yul\":8684:8958   */\n    tag_187:\n        /* \"#utility.yul\":8813:8816   */\n      0x00\n        /* \"#utility.yul\":8851:8857   */\n      dup3\n        /* \"#utility.yul\":8845:8858   */\n      mload\n        /* \"#utility.yul\":8867:8920   */\n      tag_263\n        /* \"#utility.yul\":8913:8919   */\n      dup2\n        /* \"#utility.yul\":8908:8911   */\n      dup5\n        /* \"#utility.yul\":8901:8905   */\n      0x20\n        /* \"#utility.yul\":8893:8899   */\n      dup8\n        /* \"#utility.yul\":8889:8906   */\n      add\n        /* \"#utility.yul\":8867:8920   */\n      tag_203\n      jump\t// in\n    tag_263:\n        /* \"#utility.yul\":8936:8952   */\n      swap2\n      swap1\n      swap2\n      add\n      swap3\n        /* \"#utility.yul\":8684:8958   */\n      swap2\n      pop\n      pop\n      jump\t// out\n        /* \"#utility.yul\":8963:9346   */\n    tag_200:\n        /* \"#utility.yul\":9112:9114   */\n      0x20\n        /* \"#utility.yul\":9101:9110   */\n      dup2\n        /* \"#utility.yul\":9094:9115   */\n      mstore\n        /* \"#utility.yul\":9075:9079   */\n      0x00\n        /* \"#utility.yul\":9144:9150   */\n      dup3\n        /* \"#utility.yul\":9138:9151   */\n      mload\n        /* \"#utility.yul\":9187:9193   */\n      dup1\n        /* \"#utility.yul\":9182:9184   */\n      0x20\n        /* \"#utility.yul\":9171:9180   */\n      dup5\n        /* \"#utility.yul\":9167:9185   */\n      add\n        /* \"#utility.yul\":9160:9194   */\n      mstore\n        /* \"#utility.yul\":9203:9269   */\n      tag_265\n        /* \"#utility.yul\":9262:9268   */\n      dup2\n        /* \"#utility.yul\":9257:9259   */\n      0x40\n        /* \"#utility.yul\":9246:9255   */\n      dup6\n        /* \"#utility.yul\":9242:9260   */\n      add\n        /* \"#utility.yul\":9237:9239   */\n      0x20\n        /* \"#utility.yul\":9229:9235   */\n      dup8\n        /* \"#utility.yul\":9225:9240   */\n      add\n        /* \"#utility.yul\":9203:9269   */\n      tag_203\n      jump\t// in\n    tag_265:\n        /* \"#utility.yul\":9330:9332   */\n      0x1f\n        /* \"#utility.yul\":9309:9324   */\n      add\n      not(0x1f)\n        /* \"#utility.yul\":9305:9334   */\n      and\n        /* \"#utility.yul\":9290:9335   */\n      swap2\n      swap1\n      swap2\n      add\n        /* \"#utility.yul\":9337:9339   */\n      0x40\n        /* \"#utility.yul\":9286:9340   */\n      add\n      swap3\n        /* \"#utility.yul\":8963:9346   */\n      swap2\n      pop\n      pop\n      jump\t// out\n\n    auxdata: 0xa2646970667358221220bff061134b9da112cb79601ffe8a628039caa14ad9ed2fa13abc201a74ad38fa64736f6c634300080d0033\n}\n",
    "bytecode": {
      "linkReferences": {},
      "object": "60c06040526302d4683b60015534801561001857600080fd5b506040516111f53803806111f58339810160408190526100379161006b565b60016000556001600160a01b0391821660a052166080526100a5565b6001600160a01b038116811461006857600080fd5b50565b6000806040838503121561007e57600080fd5b825161008981610053565b602084015190925061009a81610053565b809150509250929050565b60805160a05161110f6100e66000396000818161018c015281816104f2015281816108fa0152610a030152600081816101b30152610609015261110f6000f3fe608060405234801561001057600080fd5b50600436106100a35760003560e01c8063a22be79511610076578063b08c19771161005b578063b08c197714610187578063ec483e6e146101ae578063f854a27f146101d557600080fd5b8063a22be79514610154578063a694fc3a1461017457600080fd5b80632e1a7d4d146100a8578063372500ab146100bd5780639168ae72146100c55780639406704514610113575b600080fd5b6100bb6100b6366004610e96565b6101f6565b005b6100bb61056c565b6100f36100d3366004610ec4565b600260208190526000918252604090912080549181015460039091015483565b604080519384526020840192909252908201526060015b60405180910390f35b61013c610121366004610e96565b6003602052600090815260409020546001600160a01b031681565b6040516001600160a01b03909116815260200161010a565b610167610162366004610ec4565b61063b565b60405161010a9190610ee1565b6100bb610182366004610e96565b610835565b61013c7f000000000000000000000000000000000000000000000000000000000000000081565b61013c7f000000000000000000000000000000000000000000000000000000000000000081565b6101e86101e3366004610ec4565b610b1c565b60405190815260200161010a565b60026000540361024d5760405162461bcd60e51b815260206004820152601f60248201527f5265656e7472616e637947756172643a207265656e7472616e742063616c6c0060448201526064015b60405180910390fd5b6002600081815533815260209190915260409020546102d45760405162461bcd60e51b815260206004820152603f60248201527f596f752068617665206e6f20524f54592042524f49207374616b65642121212160448201527f205374616b652054686520524f54592042524f49206e6f7721212121212121006064820152608401610244565b6000818152600360205260409020546001600160a01b031633146103465760405162461bcd60e51b815260206004820152602360248201527f596f7520646f6e2774206f776e207468697320524f54592042524f492121212160448201526221212160e81b6064820152608401610244565b600061035133610b54565b33600090815260026020526040812060030180549293508392909190610378908490610f4f565b9091555060009050805b3360009081526002602052604090206001015481101561043d573360009081526002602052604090206001018054859190839081106103c3576103c3610f67565b90600052602060002090600202016001015414801561041e575033600090815260026020526040812060010180548390811061040157610401610f67565b60009182526020909120600290910201546001600160a01b031614155b1561042b5780915061043d565b8061043581610f7d565b915050610382565b5033600090815260026020526040812060010180548390811061046257610462610f67565b6000918252602080832060029283020180546001600160a01b0319166001600160a01b039590951694909417909355338252909152604081208054916104a783610f96565b90915550506000838152600360205260409081902080546001600160a01b0319169055516323b872dd60e01b8152306004820152336024820152604481018490526001600160a01b037f000000000000000000000000000000000000000000000000000000000000000016906323b872dd90606401600060405180830381600087803b15801561053657600080fd5b505af115801561054a573d6000803e3d6000fd5b5050336000908152600260208190526040822042910155600190555050505050565b33600081815260026020526040812060030154909161058a90610b54565b6105949190610f4f565b9050600081116105e65760405162461bcd60e51b815260206004820181905260248201527f596f752068617665206e6f204f694f6920746f6b656e7320746f20636c61696d6044820152606401610244565b3360008181526002602081905260408220429181019190915560030155610638907f00000000000000000000000000000000000000000000000000000000000000006001600160a01b03169083610bad565b50565b6001600160a01b038116600090815260026020526040902054606090156107f1576001600160a01b03821660009081526002602052604081205467ffffffffffffffff81111561068d5761068d610fad565b6040519080825280602002602001820160405280156106d257816020015b60408051808201909152600080825260208201528152602001906001900390816106ab5790505b5090506000805b6001600160a01b0385166000908152600260205260409020600101548110156107e8576001600160a01b038516600090815260026020526040812060010180548390811061072957610729610f67565b60009182526020909120600290910201546001600160a01b0316146107d6576001600160a01b038516600090815260026020526040902060010180548290811061077557610775610f67565b60009182526020918290206040805180820190915260029092020180546001600160a01b03168252600101549181019190915283518490849081106107bc576107bc610f67565b602002602001018190525081806107d290610f7d565b9250505b806107e081610f7d565b9150506106d9565b50909392505050565b604080516000808252602082019092529061082e565b60408051808201909152600080825260208201528152602001906001900390816108075790505b5092915050565b6002600054036108875760405162461bcd60e51b815260206004820152601f60248201527f5265656e7472616e637947756172643a207265656e7472616e742063616c6c006044820152606401610244565b600260008181553381526020919091526040902054156108da5760006108ac33610b54565b336000908152600260205260408120600301805492935083929091906108d3908490610f4f565b9091555050505b6040516331a9108f60e11b81526004810182905233906001600160a01b037f00000000000000000000000000000000000000000000000000000000000000001690636352211e90602401602060405180830381865afa158015610941573d6000803e3d6000fd5b505050506040513d601f19601f820116820180604052508101906109659190610fc3565b6001600160a01b0316146109e15760405162461bcd60e51b815260206004820152603260248201527f596f7520617265206e6f7420234f694f6921212121204275792054686520524f60448201527f54592042524f49206e6f772121212121212100000000000000000000000000006064820152608401610244565b6040516323b872dd60e01b8152336004820152306024820152604481018290527f00000000000000000000000000000000000000000000000000000000000000006001600160a01b0316906323b872dd90606401600060405180830381600087803b158015610a4f57600080fd5b505af1158015610a63573d6000803e3d6000fd5b50506040805180820182523380825260208083018781526000838152600280845295812060018082018054808301825590845294832087519590980290970180546001600160a01b0319166001600160a01b0390951694909417845591519290950191909155908352805491945090925090610ade83610f7d565b909155505050600090815260036020908152604080832080546001600160a01b03191633908117909155835260029182905282204291015560019055565b6001600160a01b0381166000908152600260205260408120600301548190610b4384610b54565b610b4d9190610f4f565b9392505050565b6001546001600160a01b0382166000908152600260208190526040822080549101549192610e1092909190610b899042610fe0565b610b939190610ff7565b610b9d9190610ff7565b610ba79190611016565b92915050565b604080516001600160a01b038416602482015260448082018490528251808303909101815260649091019091526020810180517bffffffffffffffffffffffffffffffffffffffffffffffffffffffff1663a9059cbb60e01b179052610c14908490610c19565b505050565b6000610c6e826040518060400160405280602081526020017f5361666545524332303a206c6f772d6c6576656c2063616c6c206661696c6564815250856001600160a01b0316610cfe9092919063ffffffff16565b805190915015610c145780806020019051810190610c8c9190611038565b610c145760405162461bcd60e51b815260206004820152602a60248201527f5361666545524332303a204552433230206f7065726174696f6e20646964206e60448201527f6f742073756363656564000000000000000000000000000000000000000000006064820152608401610244565b6060610d0d8484600085610d15565b949350505050565b606082471015610d8d5760405162461bcd60e51b815260206004820152602660248201527f416464726573733a20696e73756666696369656e742062616c616e636520666f60448201527f722063616c6c00000000000000000000000000000000000000000000000000006064820152608401610244565b6001600160a01b0385163b610de45760405162461bcd60e51b815260206004820152601d60248201527f416464726573733a2063616c6c20746f206e6f6e2d636f6e74726163740000006044820152606401610244565b600080866001600160a01b03168587604051610e00919061108a565b60006040518083038185875af1925050503d8060008114610e3d576040519150601f19603f3d011682016040523d82523d6000602084013e610e42565b606091505b5091509150610e52828286610e5d565b979650505050505050565b60608315610e6c575081610b4d565b825115610e7c5782518084602001fd5b8160405162461bcd60e51b815260040161024491906110a6565b600060208284031215610ea857600080fd5b5035919050565b6001600160a01b038116811461063857600080fd5b600060208284031215610ed657600080fd5b8135610b4d81610eaf565b602080825282518282018190526000919060409081850190868401855b82811015610f2c57815180516001600160a01b03168552860151868501529284019290850190600101610efe565b5091979650505050505050565b634e487b7160e01b600052601160045260246000fd5b60008219821115610f6257610f62610f39565b500190565b634e487b7160e01b600052603260045260246000fd5b600060018201610f8f57610f8f610f39565b5060010190565b600081610fa557610fa5610f39565b506000190190565b634e487b7160e01b600052604160045260246000fd5b600060208284031215610fd557600080fd5b8151610b4d81610eaf565b600082821015610ff257610ff2610f39565b500390565b600081600019048311821515161561101157611011610f39565b500290565b60008261103357634e487b7160e01b600052601260045260246000fd5b500490565b60006020828403121561104a57600080fd5b81518015158114610b4d57600080fd5b60005b8381101561107557818101518382015260200161105d565b83811115611084576000848401525b50505050565b6000825161109c81846020870161105a565b9190910192915050565b60208152600082518060208401526110c581604085016020870161105a565b601f01601f1916919091016040019291505056fea2646970667358221220bff061134b9da112cb79601ffe8a628039caa14ad9ed2fa13abc201a74ad38fa64736f6c634300080d0033",
      "opcodes": "PUSH1 0xC0 PUSH1 0x40 MSTORE PUSH4 0x2D4683B PUSH1 0x1 SSTORE CALLVALUE DUP1 ISZERO PUSH2 0x18 JUMPI PUSH1 0x0 DUP1 REVERT JUMPDEST POP PUSH1 0x40 MLOAD PUSH2 0x11F5 CODESIZE SUB DUP1 PUSH2 0x11F5 DUP4 CODECOPY DUP2 ADD PUSH1 0x40 DUP2 SWAP1 MSTORE PUSH2 0x37 SWAP2 PUSH2 0x6B JUMP JUMPDEST PUSH1 0x1 PUSH1 0x0 SSTORE PUSH1 0x1 PUSH1 0x1 PUSH1 0xA0 SHL SUB SWAP2 DUP3 AND PUSH1 0xA0 MSTORE AND PUSH1 0x80 MSTORE PUSH2 0xA5 JUMP JUMPDEST PUSH1 0x1 PUSH1 0x1 PUSH1 0xA0 SHL SUB DUP2 AND DUP2 EQ PUSH2 0x68 JUMPI PUSH1 0x0 DUP1 REVERT JUMPDEST POP JUMP JUMPDEST PUSH1 0x0 DUP1 PUSH1 0x40 DUP4 DUP6 SUB SLT ISZERO PUSH2 0x7E JUMPI PUSH1 0x0 DUP1 REVERT JUMPDEST DUP3 MLOAD PUSH2 0x89 DUP2 PUSH2 0x53 JUMP JUMPDEST PUSH1 0x20 DUP5 ADD MLOAD SWAP1 SWAP3 POP PUSH2 0x9A DUP2 PUSH2 0x53 JUMP JUMPDEST DUP1 SWAP2 POP POP SWAP3 POP SWAP3 SWAP1 POP JUMP JUMPDEST PUSH1 0x80 MLOAD PUSH1 0xA0 MLOAD PUSH2 0x110F PUSH2 0xE6 PUSH1 0x0 CODECOPY PUSH1 0x0 DUP2 DUP2 PUSH2 0x18C ADD MSTORE DUP2 DUP2 PUSH2 0x4F2 ADD MSTORE DUP2 DUP2 PUSH2 0x8FA ADD MSTORE PUSH2 0xA03 ADD MSTORE PUSH1 0x0 DUP2 DUP2 PUSH2 0x1B3 ADD MSTORE PUSH2 0x609 ADD MSTORE PUSH2 0x110F PUSH1 0x0 RETURN INVALID PUSH1 0x80 PUSH1 0x40 MSTORE CALLVALUE DUP1 ISZERO PUSH2 0x10 JUMPI PUSH1 0x0 DUP1 REVERT JUMPDEST POP PUSH1 0x4 CALLDATASIZE LT PUSH2 0xA3 JUMPI PUSH1 0x0 CALLDATALOAD PUSH1 0xE0 SHR DUP1 PUSH4 0xA22BE795 GT PUSH2 0x76 JUMPI DUP1 PUSH4 0xB08C1977 GT PUSH2 0x5B JUMPI DUP1 PUSH4 0xB08C1977 EQ PUSH2 0x187 JUMPI DUP1 PUSH4 0xEC483E6E EQ PUSH2 0x1AE JUMPI DUP1 PUSH4 0xF854A27F EQ PUSH2 0x1D5 JUMPI PUSH1 0x0 DUP1 REVERT JUMPDEST DUP1 PUSH4 0xA22BE795 EQ PUSH2 0x154 JUMPI DUP1 PUSH4 0xA694FC3A EQ PUSH2 0x174 JUMPI PUSH1 0x0 DUP1 REVERT JUMPDEST DUP1 PUSH4 0x2E1A7D4D EQ PUSH2 0xA8 JUMPI DUP1 PUSH4 0x372500AB EQ PUSH2 0xBD JUMPI DUP1 PUSH4 0x9168AE72 EQ PUSH2 0xC5 JUMPI DUP1 PUSH4 0x94067045 EQ PUSH2 0x113 JUMPI JUMPDEST PUSH1 0x0 DUP1 REVERT JUMPDEST PUSH2 0xBB PUSH2 0xB6 CALLDATASIZE PUSH1 0x4 PUSH2 0xE96 JUMP JUMPDEST PUSH2 0x1F6 JUMP JUMPDEST STOP JUMPDEST PUSH2 0xBB PUSH2 0x56C JUMP JUMPDEST PUSH2 0xF3 PUSH2 0xD3 CALLDATASIZE PUSH1 0x4 PUSH2 0xEC4 JUMP JUMPDEST PUSH1 0x2 PUSH1 0x20 DUP2 SWAP1 MSTORE PUSH1 0x0 SWAP2 DUP3 MSTORE PUSH1 0x40 SWAP1 SWAP2 KECCAK256 DUP1 SLOAD SWAP2 DUP2 ADD SLOAD PUSH1 0x3 SWAP1 SWAP2 ADD SLOAD DUP4 JUMP JUMPDEST PUSH1 0x40 DUP1 MLOAD SWAP4 DUP5 MSTORE PUSH1 0x20 DUP5 ADD SWAP3 SWAP1 SWAP3 MSTORE SWAP1 DUP3 ADD MSTORE PUSH1 0x60 ADD JUMPDEST PUSH1 0x40 MLOAD DUP1 SWAP2 SUB SWAP1 RETURN JUMPDEST PUSH2 0x13C PUSH2 0x121 CALLDATASIZE PUSH1 0x4 PUSH2 0xE96 JUMP JUMPDEST PUSH1 0x3 PUSH1 0x20 MSTORE PUSH1 0x0 SWAP1 DUP2 MSTORE PUSH1 0x40 SWAP1 KECCAK256 SLOAD PUSH1 0x1 PUSH1 0x1 PUSH1 0xA0 SHL SUB AND DUP2 JUMP JUMPDEST PUSH1 0x40 MLOAD PUSH1 0x1 PUSH1 0x1 PUSH1 0xA0 SHL SUB SWAP1 SWAP2 AND DUP2 MSTORE PUSH1 0x20 ADD PUSH2 0x10A JUMP JUMPDEST PUSH2 0x167 PUSH2 0x162 CALLDATASIZE PUSH1 0x4 PUSH2 0xEC4 JUMP JUMPDEST PUSH2 0x63B JUMP JUMPDEST PUSH1 0x40 MLOAD PUSH2 0x10A SWAP2 SWAP1 PUSH2 0xEE1 JUMP JUMPDEST PUSH2 0xBB PUSH2 0x182 CALLDATASIZE PUSH1 0x4 PUSH2 0xE96 JUMP JUMPDEST PUSH2 0x835 JUMP JUMPDEST PUSH2 0x13C PUSH32 0x0 DUP2 JUMP JUMPDEST PUSH2 0x13C PUSH32 0x0 DUP2 JUMP JUMPDEST PUSH2 0x1E8 PUSH2 0x1E3 CALLDATASIZE PUSH1 0x4 PUSH2 0xEC4 JUMP JUMPDEST PUSH2 0xB1C JUMP JUMPDEST PUSH1 0x40 MLOAD SWAP1 DUP2 MSTORE PUSH1 0x20 ADD PUSH2 0x10A JUMP JUMPDEST PUSH1 0x2 PUSH1 0x0 SLOAD SUB PUSH2 0x24D JUMPI PUSH1 0x40 MLOAD PUSH3 0x461BCD PUSH1 0xE5 SHL DUP2 MSTORE PUSH1 0x20 PUSH1 0x4 DUP3 ADD MSTORE PUSH1 0x1F PUSH1 0x24 DUP3 ADD MSTORE PUSH32 0x5265656E7472616E637947756172643A207265656E7472616E742063616C6C00 PUSH1 0x44 DUP3 ADD MSTORE PUSH1 0x64 ADD JUMPDEST PUSH1 0x40 MLOAD DUP1 SWAP2 SUB SWAP1 REVERT JUMPDEST PUSH1 0x2 PUSH1 0x0 DUP2 DUP2 SSTORE CALLER DUP2 MSTORE PUSH1 0x20 SWAP2 SWAP1 SWAP2 MSTORE PUSH1 0x40 SWAP1 KECCAK256 SLOAD PUSH2 0x2D4 JUMPI PUSH1 0x40 MLOAD PUSH3 0x461BCD PUSH1 0xE5 SHL DUP2 MSTORE PUSH1 0x20 PUSH1 0x4 DUP3 ADD MSTORE PUSH1 0x3F PUSH1 0x24 DUP3 ADD MSTORE PUSH32 0x596F752068617665206E6F20524F54592042524F49207374616B656421212121 PUSH1 0x44 DUP3 ADD MSTORE PUSH32 0x205374616B652054686520524F54592042524F49206E6F772121212121212100 PUSH1 0x64 DUP3 ADD MSTORE PUSH1 0x84 ADD PUSH2 0x244 JUMP JUMPDEST PUSH1 0x0 DUP2 DUP2 MSTORE PUSH1 0x3 PUSH1 0x20 MSTORE PUSH1 0x40 SWAP1 KECCAK256 SLOAD PUSH1 0x1 PUSH1 0x1 PUSH1 0xA0 SHL SUB AND CALLER EQ PUSH2 0x346 JUMPI PUSH1 0x40 MLOAD PUSH3 0x461BCD PUSH1 0xE5 SHL DUP2 MSTORE PUSH1 0x20 PUSH1 0x4 DUP3 ADD MSTORE PUSH1 0x23 PUSH1 0x24 DUP3 ADD MSTORE PUSH32 0x596F7520646F6E2774206F776E207468697320524F54592042524F4921212121 PUSH1 0x44 DUP3 ADD MSTORE PUSH3 0x212121 PUSH1 0xE8 SHL PUSH1 0x64 DUP3 ADD MSTORE PUSH1 0x84 ADD PUSH2 0x244 JUMP JUMPDEST PUSH1 0x0 PUSH2 0x351 CALLER PUSH2 0xB54 JUMP JUMPDEST CALLER PUSH1 0x0 SWAP1 DUP2 MSTORE PUSH1 0x2 PUSH1 0x20 MSTORE PUSH1 0x40 DUP2 KECCAK256 PUSH1 0x3 ADD DUP1 SLOAD SWAP3 SWAP4 POP DUP4 SWAP3 SWAP1 SWAP2 SWAP1 PUSH2 0x378 SWAP1 DUP5 SWAP1 PUSH2 0xF4F JUMP JUMPDEST SWAP1 SWAP2 SSTORE POP PUSH1 0x0 SWAP1 POP DUP1 JUMPDEST CALLER PUSH1 0x0 SWAP1 DUP2 MSTORE PUSH1 0x2 PUSH1 0x20 MSTORE PUSH1 0x40 SWAP1 KECCAK256 PUSH1 0x1 ADD SLOAD DUP2 LT ISZERO PUSH2 0x43D JUMPI CALLER PUSH1 0x0 SWAP1 DUP2 MSTORE PUSH1 0x2 PUSH1 0x20 MSTORE PUSH1 0x40 SWAP1 KECCAK256 PUSH1 0x1 ADD DUP1 SLOAD DUP6 SWAP2 SWAP1 DUP4 SWAP1 DUP2 LT PUSH2 0x3C3 JUMPI PUSH2 0x3C3 PUSH2 0xF67 JUMP JUMPDEST SWAP1 PUSH1 0x0 MSTORE PUSH1 0x20 PUSH1 0x0 KECCAK256 SWAP1 PUSH1 0x2 MUL ADD PUSH1 0x1 ADD SLOAD EQ DUP1 ISZERO PUSH2 0x41E JUMPI POP CALLER PUSH1 0x0 SWAP1 DUP2 MSTORE PUSH1 0x2 PUSH1 0x20 MSTORE PUSH1 0x40 DUP2 KECCAK256 PUSH1 0x1 ADD DUP1 SLOAD DUP4 SWAP1 DUP2 LT PUSH2 0x401 JUMPI PUSH2 0x401 PUSH2 0xF67 JUMP JUMPDEST PUSH1 0x0 SWAP2 DUP3 MSTORE PUSH1 0x20 SWAP1 SWAP2 KECCAK256 PUSH1 0x2 SWAP1 SWAP2 MUL ADD SLOAD PUSH1 0x1 PUSH1 0x1 PUSH1 0xA0 SHL SUB AND EQ ISZERO JUMPDEST ISZERO PUSH2 0x42B JUMPI DUP1 SWAP2 POP PUSH2 0x43D JUMP JUMPDEST DUP1 PUSH2 0x435 DUP2 PUSH2 0xF7D JUMP JUMPDEST SWAP2 POP POP PUSH2 0x382 JUMP JUMPDEST POP CALLER PUSH1 0x0 SWAP1 DUP2 MSTORE PUSH1 0x2 PUSH1 0x20 MSTORE PUSH1 0x40 DUP2 KECCAK256 PUSH1 0x1 ADD DUP1 SLOAD DUP4 SWAP1 DUP2 LT PUSH2 0x462 JUMPI PUSH2 0x462 PUSH2 0xF67 JUMP JUMPDEST PUSH1 0x0 SWAP2 DUP3 MSTORE PUSH1 0x20 DUP1 DUP4 KECCAK256 PUSH1 0x2 SWAP3 DUP4 MUL ADD DUP1 SLOAD PUSH1 0x1 PUSH1 0x1 PUSH1 0xA0 SHL SUB NOT AND PUSH1 0x1 PUSH1 0x1 PUSH1 0xA0 SHL SUB SWAP6 SWAP1 SWAP6 AND SWAP5 SWAP1 SWAP5 OR SWAP1 SWAP4 SSTORE CALLER DUP3 MSTORE SWAP1 SWAP2 MSTORE PUSH1 0x40 DUP2 KECCAK256 DUP1 SLOAD SWAP2 PUSH2 0x4A7 DUP4 PUSH2 0xF96 JUMP JUMPDEST SWAP1 SWAP2 SSTORE POP POP PUSH1 0x0 DUP4 DUP2 MSTORE PUSH1 0x3 PUSH1 0x20 MSTORE PUSH1 0x40 SWAP1 DUP2 SWAP1 KECCAK256 DUP1 SLOAD PUSH1 0x1 PUSH1 0x1 PUSH1 0xA0 SHL SUB NOT AND SWAP1 SSTORE MLOAD PUSH4 0x23B872DD PUSH1 0xE0 SHL DUP2 MSTORE ADDRESS PUSH1 0x4 DUP3 ADD MSTORE CALLER PUSH1 0x24 DUP3 ADD MSTORE PUSH1 0x44 DUP2 ADD DUP5 SWAP1 MSTORE PUSH1 0x1 PUSH1 0x1 PUSH1 0xA0 SHL SUB PUSH32 0x0 AND SWAP1 PUSH4 0x23B872DD SWAP1 PUSH1 0x64 ADD PUSH1 0x0 PUSH1 0x40 MLOAD DUP1 DUP4 SUB DUP2 PUSH1 0x0 DUP8 DUP1 EXTCODESIZE ISZERO DUP1 ISZERO PUSH2 0x536 JUMPI PUSH1 0x0 DUP1 REVERT JUMPDEST POP GAS CALL ISZERO DUP1 ISZERO PUSH2 0x54A JUMPI RETURNDATASIZE PUSH1 0x0 DUP1 RETURNDATACOPY RETURNDATASIZE PUSH1 0x0 REVERT JUMPDEST POP POP CALLER PUSH1 0x0 SWAP1 DUP2 MSTORE PUSH1 0x2 PUSH1 0x20 DUP2 SWAP1 MSTORE PUSH1 0x40 DUP3 KECCAK256 TIMESTAMP SWAP2 ADD SSTORE PUSH1 0x1 SWAP1 SSTORE POP POP POP POP POP JUMP JUMPDEST CALLER PUSH1 0x0 DUP2 DUP2 MSTORE PUSH1 0x2 PUSH1 0x20 MSTORE PUSH1 0x40 DUP2 KECCAK256 PUSH1 0x3 ADD SLOAD SWAP1 SWAP2 PUSH2 0x58A SWAP1 PUSH2 0xB54 JUMP JUMPDEST PUSH2 0x594 SWAP2 SWAP1 PUSH2 0xF4F JUMP JUMPDEST SWAP1 POP PUSH1 0x0 DUP2 GT PUSH2 0x5E6 JUMPI PUSH1 0x40 MLOAD PUSH3 0x461BCD PUSH1 0xE5 SHL DUP2 MSTORE PUSH1 0x20 PUSH1 0x4 DUP3 ADD DUP2 SWAP1 MSTORE PUSH1 0x24 DUP3 ADD MSTORE PUSH32 0x596F752068617665206E6F204F694F6920746F6B656E7320746F20636C61696D PUSH1 0x44 DUP3 ADD MSTORE PUSH1 0x64 ADD PUSH2 0x244 JUMP JUMPDEST CALLER PUSH1 0x0 DUP2 DUP2 MSTORE PUSH1 0x2 PUSH1 0x20 DUP2 SWAP1 MSTORE PUSH1 0x40 DUP3 KECCAK256 TIMESTAMP SWAP2 DUP2 ADD SWAP2 SWAP1 SWAP2 SSTORE PUSH1 0x3 ADD SSTORE PUSH2 0x638 SWAP1 PUSH32 0x0 PUSH1 0x1 PUSH1 0x1 PUSH1 0xA0 SHL SUB AND SWAP1 DUP4 PUSH2 0xBAD JUMP JUMPDEST POP JUMP JUMPDEST PUSH1 0x1 PUSH1 0x1 PUSH1 0xA0 SHL SUB DUP2 AND PUSH1 0x0 SWAP1 DUP2 MSTORE PUSH1 0x2 PUSH1 0x20 MSTORE PUSH1 0x40 SWAP1 KECCAK256 SLOAD PUSH1 0x60 SWAP1 ISZERO PUSH2 0x7F1 JUMPI PUSH1 0x1 PUSH1 0x1 PUSH1 0xA0 SHL SUB DUP3 AND PUSH1 0x0 SWAP1 DUP2 MSTORE PUSH1 0x2 PUSH1 0x20 MSTORE PUSH1 0x40 DUP2 KECCAK256 SLOAD PUSH8 0xFFFFFFFFFFFFFFFF DUP2 GT ISZERO PUSH2 0x68D JUMPI PUSH2 0x68D PUSH2 0xFAD JUMP JUMPDEST PUSH1 0x40 MLOAD SWAP1 DUP1 DUP3 MSTORE DUP1 PUSH1 0x20 MUL PUSH1 0x20 ADD DUP3 ADD PUSH1 0x40 MSTORE DUP1 ISZERO PUSH2 0x6D2 JUMPI DUP2 PUSH1 0x20 ADD JUMPDEST PUSH1 0x40 DUP1 MLOAD DUP1 DUP3 ADD SWAP1 SWAP2 MSTORE PUSH1 0x0 DUP1 DUP3 MSTORE PUSH1 0x20 DUP3 ADD MSTORE DUP2 MSTORE PUSH1 0x20 ADD SWAP1 PUSH1 0x1 SWAP1 SUB SWAP1 DUP2 PUSH2 0x6AB JUMPI SWAP1 POP JUMPDEST POP SWAP1 POP PUSH1 0x0 DUP1 JUMPDEST PUSH1 0x1 PUSH1 0x1 PUSH1 0xA0 SHL SUB DUP6 AND PUSH1 0x0 SWAP1 DUP2 MSTORE PUSH1 0x2 PUSH1 0x20 MSTORE PUSH1 0x40 SWAP1 KECCAK256 PUSH1 0x1 ADD SLOAD DUP2 LT ISZERO PUSH2 0x7E8 JUMPI PUSH1 0x1 PUSH1 0x1 PUSH1 0xA0 SHL SUB DUP6 AND PUSH1 0x0 SWAP1 DUP2 MSTORE PUSH1 0x2 PUSH1 0x20 MSTORE PUSH1 0x40 DUP2 KECCAK256 PUSH1 0x1 ADD DUP1 SLOAD DUP4 SWAP1 DUP2 LT PUSH2 0x729 JUMPI PUSH2 0x729 PUSH2 0xF67 JUMP JUMPDEST PUSH1 0x0 SWAP2 DUP3 MSTORE PUSH1 0x20 SWAP1 SWAP2 KECCAK256 PUSH1 0x2 SWAP1 SWAP2 MUL ADD SLOAD PUSH1 0x1 PUSH1 0x1 PUSH1 0xA0 SHL SUB AND EQ PUSH2 0x7D6 JUMPI PUSH1 0x1 PUSH1 0x1 PUSH1 0xA0 SHL SUB DUP6 AND PUSH1 0x0 SWAP1 DUP2 MSTORE PUSH1 0x2 PUSH1 0x20 MSTORE PUSH1 0x40 SWAP1 KECCAK256 PUSH1 0x1 ADD DUP1 SLOAD DUP3 SWAP1 DUP2 LT PUSH2 0x775 JUMPI PUSH2 0x775 PUSH2 0xF67 JUMP JUMPDEST PUSH1 0x0 SWAP2 DUP3 MSTORE PUSH1 0x20 SWAP2 DUP3 SWAP1 KECCAK256 PUSH1 0x40 DUP1 MLOAD DUP1 DUP3 ADD SWAP1 SWAP2 MSTORE PUSH1 0x2 SWAP1 SWAP3 MUL ADD DUP1 SLOAD PUSH1 0x1 PUSH1 0x1 PUSH1 0xA0 SHL SUB AND DUP3 MSTORE PUSH1 0x1 ADD SLOAD SWAP2 DUP2 ADD SWAP2 SWAP1 SWAP2 MSTORE DUP4 MLOAD DUP5 SWAP1 DUP5 SWAP1 DUP2 LT PUSH2 0x7BC JUMPI PUSH2 0x7BC PUSH2 0xF67 JUMP JUMPDEST PUSH1 0x20 MUL PUSH1 0x20 ADD ADD DUP2 SWAP1 MSTORE POP DUP2 DUP1 PUSH2 0x7D2 SWAP1 PUSH2 0xF7D JUMP JUMPDEST SWAP3 POP POP JUMPDEST DUP1 PUSH2 0x7E0 DUP2 PUSH2 0xF7D JUMP JUMPDEST SWAP2 POP POP PUSH2 0x6D9 JUMP JUMPDEST POP SWAP1 SWAP4 SWAP3 POP POP POP JUMP JUMPDEST PUSH1 0x40 DUP1 MLOAD PUSH1 0x0 DUP1 DUP3 MSTORE PUSH1 0x20 DUP3 ADD SWAP1 SWAP3 MSTORE SWAP1 PUSH2 0x82E JUMP JUMPDEST PUSH1 0x40 DUP1 MLOAD DUP1 DUP3 ADD SWAP1 SWAP2 MSTORE PUSH1 0x0 DUP1 DUP3 MSTORE PUSH1 0x20 DUP3 ADD MSTORE DUP2 MSTORE PUSH1 0x20 ADD SWAP1 PUSH1 0x1 SWAP1 SUB SWAP1 DUP2 PUSH2 0x807 JUMPI SWAP1 POP JUMPDEST POP SWAP3 SWAP2 POP POP JUMP JUMPDEST PUSH1 0x2 PUSH1 0x0 SLOAD SUB PUSH2 0x887 JUMPI PUSH1 0x40 MLOAD PUSH3 0x461BCD PUSH1 0xE5 SHL DUP2 MSTORE PUSH1 0x20 PUSH1 0x4 DUP3 ADD MSTORE PUSH1 0x1F PUSH1 0x24 DUP3 ADD MSTORE PUSH32 0x5265656E7472616E637947756172643A207265656E7472616E742063616C6C00 PUSH1 0x44 DUP3 ADD MSTORE PUSH1 0x64 ADD PUSH2 0x244 JUMP JUMPDEST PUSH1 0x2 PUSH1 0x0 DUP2 DUP2 SSTORE CALLER DUP2 MSTORE PUSH1 0x20 SWAP2 SWAP1 SWAP2 MSTORE PUSH1 0x40 SWAP1 KECCAK256 SLOAD ISZERO PUSH2 0x8DA JUMPI PUSH1 0x0 PUSH2 0x8AC CALLER PUSH2 0xB54 JUMP JUMPDEST CALLER PUSH1 0x0 SWAP1 DUP2 MSTORE PUSH1 0x2 PUSH1 0x20 MSTORE PUSH1 0x40 DUP2 KECCAK256 PUSH1 0x3 ADD DUP1 SLOAD SWAP3 SWAP4 POP DUP4 SWAP3 SWAP1 SWAP2 SWAP1 PUSH2 0x8D3 SWAP1 DUP5 SWAP1 PUSH2 0xF4F JUMP JUMPDEST SWAP1 SWAP2 SSTORE POP POP POP JUMPDEST PUSH1 0x40 MLOAD PUSH4 0x31A9108F PUSH1 0xE1 SHL DUP2 MSTORE PUSH1 0x4 DUP2 ADD DUP3 SWAP1 MSTORE CALLER SWAP1 PUSH1 0x1 PUSH1 0x1 PUSH1 0xA0 SHL SUB PUSH32 0x0 AND SWAP1 PUSH4 0x6352211E SWAP1 PUSH1 0x24 ADD PUSH1 0x20 PUSH1 0x40 MLOAD DUP1 DUP4 SUB DUP2 DUP7 GAS STATICCALL ISZERO DUP1 ISZERO PUSH2 0x941 JUMPI RETURNDATASIZE PUSH1 0x0 DUP1 RETURNDATACOPY RETURNDATASIZE PUSH1 0x0 REVERT JUMPDEST POP POP POP POP PUSH1 0x40 MLOAD RETURNDATASIZE PUSH1 0x1F NOT PUSH1 0x1F DUP3 ADD AND DUP3 ADD DUP1 PUSH1 0x40 MSTORE POP DUP2 ADD SWAP1 PUSH2 0x965 SWAP2 SWAP1 PUSH2 0xFC3 JUMP JUMPDEST PUSH1 0x1 PUSH1 0x1 PUSH1 0xA0 SHL SUB AND EQ PUSH2 0x9E1 JUMPI PUSH1 0x40 MLOAD PUSH3 0x461BCD PUSH1 0xE5 SHL DUP2 MSTORE PUSH1 0x20 PUSH1 0x4 DUP3 ADD MSTORE PUSH1 0x32 PUSH1 0x24 DUP3 ADD MSTORE PUSH32 0x596F7520617265206E6F7420234F694F6921212121204275792054686520524F PUSH1 0x44 DUP3 ADD MSTORE PUSH32 0x54592042524F49206E6F77212121212121210000000000000000000000000000 PUSH1 0x64 DUP3 ADD MSTORE PUSH1 0x84 ADD PUSH2 0x244 JUMP JUMPDEST PUSH1 0x40 MLOAD PUSH4 0x23B872DD PUSH1 0xE0 SHL DUP2 MSTORE CALLER PUSH1 0x4 DUP3 ADD MSTORE ADDRESS PUSH1 0x24 DUP3 ADD MSTORE PUSH1 0x44 DUP2 ADD DUP3 SWAP1 MSTORE PUSH32 0x0 PUSH1 0x1 PUSH1 0x1 PUSH1 0xA0 SHL SUB AND SWAP1 PUSH4 0x23B872DD SWAP1 PUSH1 0x64 ADD PUSH1 0x0 PUSH1 0x40 MLOAD DUP1 DUP4 SUB DUP2 PUSH1 0x0 DUP8 DUP1 EXTCODESIZE ISZERO DUP1 ISZERO PUSH2 0xA4F JUMPI PUSH1 0x0 DUP1 REVERT JUMPDEST POP GAS CALL ISZERO DUP1 ISZERO PUSH2 0xA63 JUMPI RETURNDATASIZE PUSH1 0x0 DUP1 RETURNDATACOPY RETURNDATASIZE PUSH1 0x0 REVERT JUMPDEST POP POP PUSH1 0x40 DUP1 MLOAD DUP1 DUP3 ADD DUP3 MSTORE CALLER DUP1 DUP3 MSTORE PUSH1 0x20 DUP1 DUP4 ADD DUP8 DUP2 MSTORE PUSH1 0x0 DUP4 DUP2 MSTORE PUSH1 0x2 DUP1 DUP5 MSTORE SWAP6 DUP2 KECCAK256 PUSH1 0x1 DUP1 DUP3 ADD DUP1 SLOAD DUP1 DUP4 ADD DUP3 SSTORE SWAP1 DUP5 MSTORE SWAP5 DUP4 KECCAK256 DUP8 MLOAD SWAP6 SWAP1 SWAP9 MUL SWAP1 SWAP8 ADD DUP1 SLOAD PUSH1 0x1 PUSH1 0x1 PUSH1 0xA0 SHL SUB NOT AND PUSH1 0x1 PUSH1 0x1 PUSH1 0xA0 SHL SUB SWAP1 SWAP6 AND SWAP5 SWAP1 SWAP5 OR DUP5 SSTORE SWAP2 MLOAD SWAP3 SWAP1 SWAP6 ADD SWAP2 SWAP1 SWAP2 SSTORE SWAP1 DUP4 MSTORE DUP1 SLOAD SWAP2 SWAP5 POP SWAP1 SWAP3 POP SWAP1 PUSH2 0xADE DUP4 PUSH2 0xF7D JUMP JUMPDEST SWAP1 SWAP2 SSTORE POP POP POP PUSH1 0x0 SWAP1 DUP2 MSTORE PUSH1 0x3 PUSH1 0x20 SWAP1 DUP2 MSTORE PUSH1 0x40 DUP1 DUP4 KECCAK256 DUP1 SLOAD PUSH1 0x1 PUSH1 0x1 PUSH1 0xA0 SHL SUB NOT AND CALLER SWAP1 DUP2 OR SWAP1 SWAP2 SSTORE DUP4 MSTORE PUSH1 0x2 SWAP2 DUP3 SWAP1 MSTORE DUP3 KECCAK256 TIMESTAMP SWAP2 ADD SSTORE PUSH1 0x1 SWAP1 SSTORE JUMP JUMPDEST PUSH1 0x1 PUSH1 0x1 PUSH1 0xA0 SHL SUB DUP2 AND PUSH1 0x0 SWAP1 DUP2 MSTORE PUSH1 0x2 PUSH1 0x20 MSTORE PUSH1 0x40 DUP2 KECCAK256 PUSH1 0x3 ADD SLOAD DUP2 SWAP1 PUSH2 0xB43 DUP5 PUSH2 0xB54 JUMP JUMPDEST PUSH2 0xB4D SWAP2 SWAP1 PUSH2 0xF4F JUMP JUMPDEST SWAP4 SWAP3 POP POP POP JUMP JUMPDEST PUSH1 0x1 SLOAD PUSH1 0x1 PUSH1 0x1 PUSH1 0xA0 SHL SUB DUP3 AND PUSH1 0x0 SWAP1 DUP2 MSTORE PUSH1 0x2 PUSH1 0x20 DUP2 SWAP1 MSTORE PUSH1 0x40 DUP3 KECCAK256 DUP1 SLOAD SWAP2 ADD SLOAD SWAP2 SWAP3 PUSH2 0xE10 SWAP3 SWAP1 SWAP2 SWAP1 PUSH2 0xB89 SWAP1 TIMESTAMP PUSH2 0xFE0 JUMP JUMPDEST PUSH2 0xB93 SWAP2 SWAP1 PUSH2 0xFF7 JUMP JUMPDEST PUSH2 0xB9D SWAP2 SWAP1 PUSH2 0xFF7 JUMP JUMPDEST PUSH2 0xBA7 SWAP2 SWAP1 PUSH2 0x1016 JUMP JUMPDEST SWAP3 SWAP2 POP POP JUMP JUMPDEST PUSH1 0x40 DUP1 MLOAD PUSH1 0x1 PUSH1 0x1 PUSH1 0xA0 SHL SUB DUP5 AND PUSH1 0x24 DUP3 ADD MSTORE PUSH1 0x44 DUP1 DUP3 ADD DUP5 SWAP1 MSTORE DUP3 MLOAD DUP1 DUP4 SUB SWAP1 SWAP2 ADD DUP2 MSTORE PUSH1 0x64 SWAP1 SWAP2 ADD SWAP1 SWAP2 MSTORE PUSH1 0x20 DUP2 ADD DUP1 MLOAD PUSH28 0xFFFFFFFFFFFFFFFFFFFFFFFFFFFFFFFFFFFFFFFFFFFFFFFFFFFFFFFF AND PUSH4 0xA9059CBB PUSH1 0xE0 SHL OR SWAP1 MSTORE PUSH2 0xC14 SWAP1 DUP5 SWAP1 PUSH2 0xC19 JUMP JUMPDEST POP POP POP JUMP JUMPDEST PUSH1 0x0 PUSH2 0xC6E DUP3 PUSH1 0x40 MLOAD DUP1 PUSH1 0x40 ADD PUSH1 0x40 MSTORE DUP1 PUSH1 0x20 DUP2 MSTORE PUSH1 0x20 ADD PUSH32 0x5361666545524332303A206C6F772D6C6576656C2063616C6C206661696C6564 DUP2 MSTORE POP DUP6 PUSH1 0x1 PUSH1 0x1 PUSH1 0xA0 SHL SUB AND PUSH2 0xCFE SWAP1 SWAP3 SWAP2 SWAP1 PUSH4 0xFFFFFFFF AND JUMP JUMPDEST DUP1 MLOAD SWAP1 SWAP2 POP ISZERO PUSH2 0xC14 JUMPI DUP1 DUP1 PUSH1 0x20 ADD SWAP1 MLOAD DUP2 ADD SWAP1 PUSH2 0xC8C SWAP2 SWAP1 PUSH2 0x1038 JUMP JUMPDEST PUSH2 0xC14 JUMPI PUSH1 0x40 MLOAD PUSH3 0x461BCD PUSH1 0xE5 SHL DUP2 MSTORE PUSH1 0x20 PUSH1 0x4 DUP3 ADD MSTORE PUSH1 0x2A PUSH1 0x24 DUP3 ADD MSTORE PUSH32 0x5361666545524332303A204552433230206F7065726174696F6E20646964206E PUSH1 0x44 DUP3 ADD MSTORE PUSH32 0x6F74207375636365656400000000000000000000000000000000000000000000 PUSH1 0x64 DUP3 ADD MSTORE PUSH1 0x84 ADD PUSH2 0x244 JUMP JUMPDEST PUSH1 0x60 PUSH2 0xD0D DUP5 DUP5 PUSH1 0x0 DUP6 PUSH2 0xD15 JUMP JUMPDEST SWAP5 SWAP4 POP POP POP POP JUMP JUMPDEST PUSH1 0x60 DUP3 SELFBALANCE LT ISZERO PUSH2 0xD8D JUMPI PUSH1 0x40 MLOAD PUSH3 0x461BCD PUSH1 0xE5 SHL DUP2 MSTORE PUSH1 0x20 PUSH1 0x4 DUP3 ADD MSTORE PUSH1 0x26 PUSH1 0x24 DUP3 ADD MSTORE PUSH32 0x416464726573733A20696E73756666696369656E742062616C616E636520666F PUSH1 0x44 DUP3 ADD MSTORE PUSH32 0x722063616C6C0000000000000000000000000000000000000000000000000000 PUSH1 0x64 DUP3 ADD MSTORE PUSH1 0x84 ADD PUSH2 0x244 JUMP JUMPDEST PUSH1 0x1 PUSH1 0x1 PUSH1 0xA0 SHL SUB DUP6 AND EXTCODESIZE PUSH2 0xDE4 JUMPI PUSH1 0x40 MLOAD PUSH3 0x461BCD PUSH1 0xE5 SHL DUP2 MSTORE PUSH1 0x20 PUSH1 0x4 DUP3 ADD MSTORE PUSH1 0x1D PUSH1 0x24 DUP3 ADD MSTORE PUSH32 0x416464726573733A2063616C6C20746F206E6F6E2D636F6E7472616374000000 PUSH1 0x44 DUP3 ADD MSTORE PUSH1 0x64 ADD PUSH2 0x244 JUMP JUMPDEST PUSH1 0x0 DUP1 DUP7 PUSH1 0x1 PUSH1 0x1 PUSH1 0xA0 SHL SUB AND DUP6 DUP8 PUSH1 0x40 MLOAD PUSH2 0xE00 SWAP2 SWAP1 PUSH2 0x108A JUMP JUMPDEST PUSH1 0x0 PUSH1 0x40 MLOAD DUP1 DUP4 SUB DUP2 DUP6 DUP8 GAS CALL SWAP3 POP POP POP RETURNDATASIZE DUP1 PUSH1 0x0 DUP2 EQ PUSH2 0xE3D JUMPI PUSH1 0x40 MLOAD SWAP2 POP PUSH1 0x1F NOT PUSH1 0x3F RETURNDATASIZE ADD AND DUP3 ADD PUSH1 0x40 MSTORE RETURNDATASIZE DUP3 MSTORE RETURNDATASIZE PUSH1 0x0 PUSH1 0x20 DUP5 ADD RETURNDATACOPY PUSH2 0xE42 JUMP JUMPDEST PUSH1 0x60 SWAP2 POP JUMPDEST POP SWAP2 POP SWAP2 POP PUSH2 0xE52 DUP3 DUP3 DUP7 PUSH2 0xE5D JUMP JUMPDEST SWAP8 SWAP7 POP POP POP POP POP POP POP JUMP JUMPDEST PUSH1 0x60 DUP4 ISZERO PUSH2 0xE6C JUMPI POP DUP2 PUSH2 0xB4D JUMP JUMPDEST DUP3 MLOAD ISZERO PUSH2 0xE7C JUMPI DUP3 MLOAD DUP1 DUP5 PUSH1 0x20 ADD REVERT JUMPDEST DUP2 PUSH1 0x40 MLOAD PUSH3 0x461BCD PUSH1 0xE5 SHL DUP2 MSTORE PUSH1 0x4 ADD PUSH2 0x244 SWAP2 SWAP1 PUSH2 0x10A6 JUMP JUMPDEST PUSH1 0x0 PUSH1 0x20 DUP3 DUP5 SUB SLT ISZERO PUSH2 0xEA8 JUMPI PUSH1 0x0 DUP1 REVERT JUMPDEST POP CALLDATALOAD SWAP2 SWAP1 POP JUMP JUMPDEST PUSH1 0x1 PUSH1 0x1 PUSH1 0xA0 SHL SUB DUP2 AND DUP2 EQ PUSH2 0x638 JUMPI PUSH1 0x0 DUP1 REVERT JUMPDEST PUSH1 0x0 PUSH1 0x20 DUP3 DUP5 SUB SLT ISZERO PUSH2 0xED6 JUMPI PUSH1 0x0 DUP1 REVERT JUMPDEST DUP2 CALLDATALOAD PUSH2 0xB4D DUP2 PUSH2 0xEAF JUMP JUMPDEST PUSH1 0x20 DUP1 DUP3 MSTORE DUP3 MLOAD DUP3 DUP3 ADD DUP2 SWAP1 MSTORE PUSH1 0x0 SWAP2 SWAP1 PUSH1 0x40 SWAP1 DUP2 DUP6 ADD SWAP1 DUP7 DUP5 ADD DUP6 JUMPDEST DUP3 DUP2 LT ISZERO PUSH2 0xF2C JUMPI DUP2 MLOAD DUP1 MLOAD PUSH1 0x1 PUSH1 0x1 PUSH1 0xA0 SHL SUB AND DUP6 MSTORE DUP7 ADD MLOAD DUP7 DUP6 ADD MSTORE SWAP3 DUP5 ADD SWAP3 SWAP1 DUP6 ADD SWAP1 PUSH1 0x1 ADD PUSH2 0xEFE JUMP JUMPDEST POP SWAP2 SWAP8 SWAP7 POP POP POP POP POP POP POP JUMP JUMPDEST PUSH4 0x4E487B71 PUSH1 0xE0 SHL PUSH1 0x0 MSTORE PUSH1 0x11 PUSH1 0x4 MSTORE PUSH1 0x24 PUSH1 0x0 REVERT JUMPDEST PUSH1 0x0 DUP3 NOT DUP3 GT ISZERO PUSH2 0xF62 JUMPI PUSH2 0xF62 PUSH2 0xF39 JUMP JUMPDEST POP ADD SWAP1 JUMP JUMPDEST PUSH4 0x4E487B71 PUSH1 0xE0 SHL PUSH1 0x0 MSTORE PUSH1 0x32 PUSH1 0x4 MSTORE PUSH1 0x24 PUSH1 0x0 REVERT JUMPDEST PUSH1 0x0 PUSH1 0x1 DUP3 ADD PUSH2 0xF8F JUMPI PUSH2 0xF8F PUSH2 0xF39 JUMP JUMPDEST POP PUSH1 0x1 ADD SWAP1 JUMP JUMPDEST PUSH1 0x0 DUP2 PUSH2 0xFA5 JUMPI PUSH2 0xFA5 PUSH2 0xF39 JUMP JUMPDEST POP PUSH1 0x0 NOT ADD SWAP1 JUMP JUMPDEST PUSH4 0x4E487B71 PUSH1 0xE0 SHL PUSH1 0x0 MSTORE PUSH1 0x41 PUSH1 0x4 MSTORE PUSH1 0x24 PUSH1 0x0 REVERT JUMPDEST PUSH1 0x0 PUSH1 0x20 DUP3 DUP5 SUB SLT ISZERO PUSH2 0xFD5 JUMPI PUSH1 0x0 DUP1 REVERT JUMPDEST DUP2 MLOAD PUSH2 0xB4D DUP2 PUSH2 0xEAF JUMP JUMPDEST PUSH1 0x0 DUP3 DUP3 LT ISZERO PUSH2 0xFF2 JUMPI PUSH2 0xFF2 PUSH2 0xF39 JUMP JUMPDEST POP SUB SWAP1 JUMP JUMPDEST PUSH1 0x0 DUP2 PUSH1 0x0 NOT DIV DUP4 GT DUP3 ISZERO ISZERO AND ISZERO PUSH2 0x1011 JUMPI PUSH2 0x1011 PUSH2 0xF39 JUMP JUMPDEST POP MUL SWAP1 JUMP JUMPDEST PUSH1 0x0 DUP3 PUSH2 0x1033 JUMPI PUSH4 0x4E487B71 PUSH1 0xE0 SHL PUSH1 0x0 MSTORE PUSH1 0x12 PUSH1 0x4 MSTORE PUSH1 0x24 PUSH1 0x0 REVERT JUMPDEST POP DIV SWAP1 JUMP JUMPDEST PUSH1 0x0 PUSH1 0x20 DUP3 DUP5 SUB SLT ISZERO PUSH2 0x104A JUMPI PUSH1 0x0 DUP1 REVERT JUMPDEST DUP2 MLOAD DUP1 ISZERO ISZERO DUP2 EQ PUSH2 0xB4D JUMPI PUSH1 0x0 DUP1 REVERT JUMPDEST PUSH1 0x0 JUMPDEST DUP4 DUP2 LT ISZERO PUSH2 0x1075 JUMPI DUP2 DUP2 ADD MLOAD DUP4 DUP3 ADD MSTORE PUSH1 0x20 ADD PUSH2 0x105D JUMP JUMPDEST DUP4 DUP2 GT ISZERO PUSH2 0x1084 JUMPI PUSH1 0x0 DUP5 DUP5 ADD MSTORE JUMPDEST POP POP POP POP JUMP JUMPDEST PUSH1 0x0 DUP3 MLOAD PUSH2 0x109C DUP2 DUP5 PUSH1 0x20 DUP8 ADD PUSH2 0x105A JUMP JUMPDEST SWAP2 SWAP1 SWAP2 ADD SWAP3 SWAP2 POP POP JUMP JUMPDEST PUSH1 0x20 DUP2 MSTORE PUSH1 0x0 DUP3 MLOAD DUP1 PUSH1 0x20 DUP5 ADD MSTORE PUSH2 0x10C5 DUP2 PUSH1 0x40 DUP6 ADD PUSH1 0x20 DUP8 ADD PUSH2 0x105A JUMP JUMPDEST PUSH1 0x1F ADD PUSH1 0x1F NOT AND SWAP2 SWAP1 SWAP2 ADD PUSH1 0x40 ADD SWAP3 SWAP2 POP POP JUMP INVALID LOG2 PUSH5 0x6970667358 0x22 SLT KECCAK256 0xBF CREATE PUSH2 0x134B SWAP14 LOG1 SLT 0xCB PUSH26 0x601FFE8A628039CAA14AD9ED2FA13ABC201A74AD38FA64736F6C PUSH4 0x4300080D STOP CALLER "
    },
    "gasEstimates": {
      "creation": {
        "codeDepositCost": "873400",
        "executionCost": "infinite",
        "totalCost": "infinite"
      },
      "external": {
        "availableRewards(address)": "infinite",
        "claimRewards()": "infinite",
        "getStakedRotyBrois(address)": "infinite",
        "oioiToken()": "infinite",
        "stake(uint256)": "infinite",
        "stakerAddress(uint256)": "2544",
        "stakers(address)": "6822",
        "therotybroiCollection()": "infinite",
        "withdraw(uint256)": "infinite"
      },
      "internal": {
        "calculateRewards(address)": "infinite"
      }
    },
    "methodIdentifiers": {
      "availableRewards(address)": "f854a27f",
      "claimRewards()": "372500ab",
      "getStakedRotyBrois(address)": "a22be795",
      "oioiToken()": "ec483e6e",
      "stake(uint256)": "a694fc3a",
      "stakerAddress(uint256)": "94067045",
      "stakers(address)": "9168ae72",
      "therotybroiCollection()": "b08c1977",
      "withdraw(uint256)": "2e1a7d4d"
    }
  },
  "storageLayout": {
    "storage": [
      {
        "astId": 510,
        "contract": "RotyBroiStaking.sol:RotyBroiStaking",
        "label": "_status",
        "offset": 0,
        "slot": "0",
        "type": "t_uint256"
      },
      {
        "astId": 54,
        "contract": "RotyBroiStaking.sol:RotyBroiStaking",
        "label": "rewardsPerHour",
        "offset": 0,
        "slot": "1",
        "type": "t_uint256"
      },
      {
        "astId": 59,
        "contract": "RotyBroiStaking.sol:RotyBroiStaking",
        "label": "stakers",
        "offset": 0,
        "slot": "2",
        "type": "t_mapping(t_address,t_struct(Staker)51_storage)"
      },
      {
        "astId": 63,
        "contract": "RotyBroiStaking.sol:RotyBroiStaking",
        "label": "stakerAddress",
        "offset": 0,
        "slot": "3",
        "type": "t_mapping(t_uint256,t_address)"
      }
    ],
    "types": {
      "t_address": {
        "encoding": "inplace",
        "label": "address",
        "numberOfBytes": "20"
      },
      "t_array(t_struct(StakedRotyBroi)40_storage)dyn_storage": {
        "base": "t_struct(StakedRotyBroi)40_storage",
        "encoding": "dynamic_array",
        "label": "struct RotyBroiStaking.StakedRotyBroi[]",
        "numberOfBytes": "32"
      },
      "t_mapping(t_address,t_struct(Staker)51_storage)": {
        "encoding": "mapping",
        "key": "t_address",
        "label": "mapping(address => struct RotyBroiStaking.Staker)",
        "numberOfBytes": "32",
        "value": "t_struct(Staker)51_storage"
      },
      "t_mapping(t_uint256,t_address)": {
        "encoding": "mapping",
        "key": "t_uint256",
        "label": "mapping(uint256 => address)",
        "numberOfBytes": "32",
        "value": "t_address"
      },
      "t_struct(StakedRotyBroi)40_storage": {
        "encoding": "inplace",
        "label": "struct RotyBroiStaking.StakedRotyBroi",
        "members": [
          {
            "astId": 37,
            "contract": "RotyBroiStaking.sol:RotyBroiStaking",
            "label": "staker",
            "offset": 0,
            "slot": "0",
            "type": "t_address"
          },
          {
            "astId": 39,
            "contract": "RotyBroiStaking.sol:RotyBroiStaking",
            "label": "rotybroiId",
            "offset": 0,
            "slot": "1",
            "type": "t_uint256"
          }
        ],
        "numberOfBytes": "64"
      },
      "t_struct(Staker)51_storage": {
        "encoding": "inplace",
        "label": "struct RotyBroiStaking.Staker",
        "members": [
          {
            "astId": 42,
            "contract": "RotyBroiStaking.sol:RotyBroiStaking",
            "label": "amountStaked",
            "offset": 0,
            "slot": "0",
            "type": "t_uint256"
          },
          {
            "astId": 46,
            "contract": "RotyBroiStaking.sol:RotyBroiStaking",
            "label": "stakedRotyBrois",
            "offset": 0,
            "slot": "1",
            "type": "t_array(t_struct(StakedRotyBroi)40_storage)dyn_storage"
          },
          {
            "astId": 48,
            "contract": "RotyBroiStaking.sol:RotyBroiStaking",
            "label": "timeOfLastUpdate",
            "offset": 0,
            "slot": "2",
            "type": "t_uint256"
          },
          {
            "astId": 50,
            "contract": "RotyBroiStaking.sol:RotyBroiStaking",
            "label": "unclaimedRewards",
            "offset": 0,
            "slot": "3",
            "type": "t_uint256"
          }
        ],
        "numberOfBytes": "128"
      },
      "t_uint256": {
        "encoding": "inplace",
        "label": "uint256",
        "numberOfBytes": "32"
      }
    }
  },
  "userdoc": {
    "kind": "user",
    "methods": {},
    "version": 1
  }
}